{
  "contractName": "RubyETH",
  "abi": [
    {
      "inputs": [
        {
          "internalType": "address",
          "name": "_transfer",
          "type": "address"
        },
        {
          "internalType": "address",
          "name": "_redeem",
          "type": "address"
        },
        {
          "internalType": "uint256",
          "name": "_unit",
          "type": "uint256"
        }
      ],
      "stateMutability": "nonpayable",
      "type": "constructor"
    },
    {
      "anonymous": false,
      "inputs": [
        {
          "indexed": false,
          "internalType": "string",
          "name": "label",
          "type": "string"
        },
        {
          "indexed": true,
          "internalType": "uint256",
          "name": "value",
          "type": "uint256"
        }
      ],
      "name": "LogUint256",
      "type": "event"
    },
    {
      "anonymous": false,
      "inputs": [
        {
          "components": [
            {
              "internalType": "bytes32",
              "name": "x",
              "type": "bytes32"
            },
            {
              "internalType": "bytes32",
              "name": "y",
              "type": "bytes32"
            }
          ],
          "indexed": false,
          "internalType": "struct Utils.G1Point[]",
          "name": "parties",
          "type": "tuple[]"
        }
      ],
      "name": "TransferOccurred",
      "type": "event"
    },
    {
      "inputs": [],
      "name": "MAX",
      "outputs": [
        {
          "internalType": "uint256",
          "name": "",
          "type": "uint256"
        }
      ],
      "stateMutability": "view",
      "type": "function",
      "constant": true
    },
    {
      "inputs": [],
      "name": "balance_log",
      "outputs": [
        {
          "internalType": "uint256",
          "name": "",
          "type": "uint256"
        }
      ],
      "stateMutability": "view",
      "type": "function",
      "constant": true
    },
    {
      "inputs": [],
      "name": "deposits_log",
      "outputs": [
        {
          "internalType": "uint256",
          "name": "",
          "type": "uint256"
        }
      ],
      "stateMutability": "view",
      "type": "function",
      "constant": true
    },
    {
      "inputs": [
        {
          "components": [
            {
              "internalType": "bytes32",
              "name": "x",
              "type": "bytes32"
            },
            {
              "internalType": "bytes32",
              "name": "y",
              "type": "bytes32"
            }
          ],
          "internalType": "struct Utils.G1Point",
          "name": "y",
          "type": "tuple"
        }
      ],
      "name": "getAccountState",
      "outputs": [
        {
          "components": [
            {
              "internalType": "bytes32",
              "name": "x",
              "type": "bytes32"
            },
            {
              "internalType": "bytes32",
              "name": "y",
              "type": "bytes32"
            }
          ],
          "internalType": "struct Utils.G1Point[2]",
          "name": "y_available",
          "type": "tuple[2]"
        },
        {
          "components": [
            {
              "internalType": "bytes32",
              "name": "x",
              "type": "bytes32"
            },
            {
              "internalType": "bytes32",
              "name": "y",
              "type": "bytes32"
            }
          ],
          "internalType": "struct Utils.G1Point[2]",
          "name": "y_pending",
          "type": "tuple[2]"
        }
      ],
      "stateMutability": "view",
      "type": "function",
      "constant": true
    },
    {
      "inputs": [
        {
          "components": [
            {
              "internalType": "bytes32",
              "name": "x",
              "type": "bytes32"
            },
            {
              "internalType": "bytes32",
              "name": "y",
              "type": "bytes32"
            }
          ],
          "internalType": "struct Utils.G1Point[]",
          "name": "y",
          "type": "tuple[]"
        },
        {
          "internalType": "uint256",
          "name": "round",
          "type": "uint256"
        }
      ],
      "name": "getBalance",
      "outputs": [
        {
          "components": [
            {
              "internalType": "bytes32",
              "name": "x",
              "type": "bytes32"
            },
            {
              "internalType": "bytes32",
              "name": "y",
              "type": "bytes32"
            }
          ],
          "internalType": "struct Utils.G1Point[2][]",
          "name": "accounts",
          "type": "tuple[2][]"
        }
      ],
      "stateMutability": "view",
      "type": "function",
      "constant": true
    },
    {
      "inputs": [
        {
          "components": [
            {
              "internalType": "bytes32",
              "name": "x",
              "type": "bytes32"
            },
            {
              "internalType": "bytes32",
              "name": "y",
              "type": "bytes32"
            }
          ],
          "internalType": "struct Utils.G1Point",
          "name": "y",
          "type": "tuple"
        }
      ],
      "name": "getGuess",
      "outputs": [
        {
          "internalType": "bytes",
          "name": "y_guess",
          "type": "bytes"
        }
      ],
      "stateMutability": "view",
      "type": "function",
      "constant": true
    },
    {
      "inputs": [],
      "name": "last_global_update",
      "outputs": [
        {
          "internalType": "uint256",
          "name": "",
          "type": "uint256"
        }
      ],
      "stateMutability": "view",
      "type": "function",
      "constant": true
    },
    {
      "inputs": [
        {
          "internalType": "bytes32",
          "name": "",
          "type": "bytes32"
        }
      ],
      "name": "last_roll_over",
      "outputs": [
        {
          "internalType": "uint256",
          "name": "",
          "type": "uint256"
        }
      ],
      "stateMutability": "view",
      "type": "function",
      "constant": true
    },
    {
      "inputs": [],
      "name": "mint_count_log",
      "outputs": [
        {
          "internalType": "uint256",
          "name": "",
          "type": "uint256"
        }
      ],
      "stateMutability": "view",
      "type": "function",
      "constant": true
    },
    {
      "inputs": [],
      "name": "redeem_fee_denominator",
      "outputs": [
        {
          "internalType": "uint256",
          "name": "",
          "type": "uint256"
        }
      ],
      "stateMutability": "view",
      "type": "function",
      "constant": true
    },
    {
      "inputs": [],
      "name": "redeem_fee_log",
      "outputs": [
        {
          "internalType": "uint256",
          "name": "",
          "type": "uint256"
        }
      ],
      "stateMutability": "view",
      "type": "function",
      "constant": true
    },
    {
      "inputs": [],
      "name": "redeem_fee_numerator",
      "outputs": [
        {
          "internalType": "uint256",
          "name": "",
          "type": "uint256"
        }
      ],
      "stateMutability": "view",
      "type": "function",
      "constant": true
    },
    {
      "inputs": [
        {
          "components": [
            {
              "internalType": "bytes32",
              "name": "x",
              "type": "bytes32"
            },
            {
              "internalType": "bytes32",
              "name": "y",
              "type": "bytes32"
            }
          ],
          "internalType": "struct Utils.G1Point",
          "name": "y",
          "type": "tuple"
        },
        {
          "internalType": "uint256",
          "name": "c",
          "type": "uint256"
        },
        {
          "internalType": "uint256",
          "name": "s",
          "type": "uint256"
        }
      ],
      "name": "register",
      "outputs": [],
      "stateMutability": "nonpayable",
      "type": "function"
    },
    {
      "inputs": [
        {
          "internalType": "bytes32",
          "name": "yHash",
          "type": "bytes32"
        }
      ],
      "name": "registered",
      "outputs": [
        {
          "internalType": "bool",
          "name": "",
          "type": "bool"
        }
      ],
      "stateMutability": "view",
      "type": "function",
      "constant": true
    },
    {
      "inputs": [],
      "name": "round_base",
      "outputs": [
        {
          "internalType": "uint256",
          "name": "",
          "type": "uint256"
        }
      ],
      "stateMutability": "view",
      "type": "function",
      "constant": true
    },
    {
      "inputs": [],
      "name": "round_len",
      "outputs": [
        {
          "internalType": "uint256",
          "name": "",
          "type": "uint256"
        }
      ],
      "stateMutability": "view",
      "type": "function",
      "constant": true
    },
    {
      "inputs": [],
      "name": "ruby_agency",
      "outputs": [
        {
          "internalType": "address payable",
          "name": "",
          "type": "address"
        }
      ],
      "stateMutability": "view",
      "type": "function",
      "constant": true
    },
    {
      "inputs": [
        {
          "internalType": "uint256",
          "name": "numerator",
          "type": "uint256"
        },
        {
          "internalType": "uint256",
          "name": "denominator",
          "type": "uint256"
        }
      ],
      "name": "setRedeemFeeStrategy",
      "outputs": [],
      "stateMutability": "nonpayable",
      "type": "function"
    },
    {
      "inputs": [
        {
          "internalType": "uint256",
          "name": "_round_base",
          "type": "uint256"
        }
      ],
      "name": "setRoundBase",
      "outputs": [],
      "stateMutability": "nonpayable",
      "type": "function"
    },
    {
      "inputs": [
        {
          "internalType": "uint256",
          "name": "_round_len",
          "type": "uint256"
        }
      ],
      "name": "setRoundLen",
      "outputs": [],
      "stateMutability": "nonpayable",
      "type": "function"
    },
    {
      "inputs": [
        {
          "internalType": "address payable",
          "name": "_ruby_agency",
          "type": "address"
        }
      ],
      "name": "setRubyAgency",
      "outputs": [],
      "stateMutability": "nonpayable",
      "type": "function"
    },
    {
      "inputs": [
        {
          "internalType": "uint256",
          "name": "numerator",
          "type": "uint256"
        },
        {
          "internalType": "uint256",
          "name": "denominator",
          "type": "uint256"
        }
      ],
      "name": "setTransferFeeStrategy",
      "outputs": [],
      "stateMutability": "nonpayable",
      "type": "function"
    },
    {
      "inputs": [
        {
          "internalType": "uint256",
          "name": "_unit",
          "type": "uint256"
        }
      ],
      "name": "setUnit",
      "outputs": [],
      "stateMutability": "nonpayable",
      "type": "function"
    },
    {
      "inputs": [
        {
          "components": [
            {
              "internalType": "bytes32",
              "name": "x",
              "type": "bytes32"
            },
            {
              "internalType": "bytes32",
              "name": "y",
              "type": "bytes32"
            }
          ],
          "internalType": "struct Utils.G1Point[]",
          "name": "C",
          "type": "tuple[]"
        },
        {
          "components": [
            {
              "internalType": "bytes32",
              "name": "x",
              "type": "bytes32"
            },
            {
              "internalType": "bytes32",
              "name": "y",
              "type": "bytes32"
            }
          ],
          "internalType": "struct Utils.G1Point",
          "name": "D",
          "type": "tuple"
        },
        {
          "components": [
            {
              "internalType": "bytes32",
              "name": "x",
              "type": "bytes32"
            },
            {
              "internalType": "bytes32",
              "name": "y",
              "type": "bytes32"
            }
          ],
          "internalType": "struct Utils.G1Point[]",
          "name": "y",
          "type": "tuple[]"
        },
        {
          "components": [
            {
              "internalType": "bytes32",
              "name": "x",
              "type": "bytes32"
            },
            {
              "internalType": "bytes32",
              "name": "y",
              "type": "bytes32"
            }
          ],
          "internalType": "struct Utils.G1Point",
          "name": "u",
          "type": "tuple"
        },
        {
          "internalType": "bytes",
          "name": "proof",
          "type": "bytes"
        }
      ],
      "name": "transfer",
      "outputs": [],
      "stateMutability": "payable",
      "type": "function",
      "payable": true
    },
    {
      "inputs": [],
      "name": "transfer_fee_denominator",
      "outputs": [
        {
          "internalType": "uint256",
          "name": "",
          "type": "uint256"
        }
      ],
      "stateMutability": "view",
      "type": "function",
      "constant": true
    },
    {
      "inputs": [],
      "name": "transfer_fee_log",
      "outputs": [
        {
          "internalType": "uint256",
          "name": "",
          "type": "uint256"
        }
      ],
      "stateMutability": "view",
      "type": "function",
      "constant": true
    },
    {
      "inputs": [],
      "name": "transfer_fee_numerator",
      "outputs": [
        {
          "internalType": "uint256",
          "name": "",
          "type": "uint256"
        }
      ],
      "stateMutability": "view",
      "type": "function",
      "constant": true
    },
    {
      "inputs": [],
      "name": "unit",
      "outputs": [
        {
          "internalType": "uint256",
          "name": "",
          "type": "uint256"
        }
      ],
      "stateMutability": "view",
      "type": "function",
      "constant": true
    },
    {
      "inputs": [],
      "name": "users_log",
      "outputs": [
        {
          "internalType": "uint256",
          "name": "",
          "type": "uint256"
        }
      ],
      "stateMutability": "view",
      "type": "function",
      "constant": true
    },
    {
      "inputs": [
        {
          "components": [
            {
              "internalType": "bytes32",
              "name": "x",
              "type": "bytes32"
            },
            {
              "internalType": "bytes32",
              "name": "y",
              "type": "bytes32"
            }
          ],
          "internalType": "struct Utils.G1Point",
          "name": "y",
          "type": "tuple"
        },
        {
          "internalType": "uint256",
          "name": "unitAmount",
          "type": "uint256"
        },
        {
          "internalType": "bytes",
          "name": "encGuess",
          "type": "bytes"
        }
      ],
      "name": "mint",
      "outputs": [],
      "stateMutability": "payable",
      "type": "function",
      "payable": true
    },
    {
      "inputs": [
        {
          "components": [
            {
              "internalType": "bytes32",
              "name": "x",
              "type": "bytes32"
            },
            {
              "internalType": "bytes32",
              "name": "y",
              "type": "bytes32"
            }
          ],
          "internalType": "struct Utils.G1Point",
          "name": "y",
          "type": "tuple"
        },
        {
          "internalType": "uint256",
          "name": "unitAmount",
          "type": "uint256"
        },
        {
          "components": [
            {
              "internalType": "bytes32",
              "name": "x",
              "type": "bytes32"
            },
            {
              "internalType": "bytes32",
              "name": "y",
              "type": "bytes32"
            }
          ],
          "internalType": "struct Utils.G1Point",
          "name": "u",
          "type": "tuple"
        },
        {
          "internalType": "bytes",
          "name": "proof",
          "type": "bytes"
        },
        {
          "internalType": "bytes",
          "name": "encGuess",
          "type": "bytes"
        }
      ],
      "name": "redeem",
      "outputs": [],
      "stateMutability": "nonpayable",
      "type": "function"
    }
  ],
  "bytecode": "0x60806040526018600155600160025560016004556064600555600160065560056007556000600a556000600b556000600c556000600d556000600e556000600f5560006014553480156200005257600080fd5b50604051620039f2380380620039f28339810160408190526200007591620000d6565b600380546001600160a01b03199081163317909155600880546001600160a01b039586169083161790556009805494909316931692909217905560005562000118565b80516001600160a01b0381168114620000d057600080fd5b92915050565b600080600060608486031215620000eb578283fd5b620000f78585620000b8565b9250620001088560208601620000b8565b9150604084015190509250925092565b6138ca80620001286000396000f3fe6080604052600436106101d85760003560e01c80637b5b3b9f11610102578063b47e51d711610095578063dcfa1e5d11610064578063dcfa1e5d146104f0578063ddf911da14610505578063eff4d1781461051a578063f487e9521461052d576101d8565b8063b47e51d71461049c578063b5753dee146104b1578063d49d5181146104c6578063d90d3a58146104db576101d8565b80639b0d85d3116100d15780639b0d85d314610401578063a568ce5114610421578063a9b05a561461044f578063aae078901461047c576101d8565b80637b5b3b9f146103a257806384f9b07a146103c25780638ad747e0146103d7578063907af6c0146103ec576101d8565b80635524d5481161017a5780636be72c43116101495780636be72c431461032d5780637207f20e1461034d57806375236e3f1461036d578063767b7d8514610382576101d8565b80635524d548146102c1578063566a8e62146102ee57806362c4d3a31461030357806363bb012c14610318576101d8565b80632a6a14bd116101b65780632a6a14bd1461024a5780632a6b024b1461026c5780634301a344146102815780634ad729e0146102a1576101d8565b80630221c717146101dd57806327d084e7146102085780632811112014610235575b600080fd5b3480156101e957600080fd5b506101f261054d565b6040516101ff9190613811565b60405180910390f35b34801561021457600080fd5b50610228610223366004612492565b610553565b6040516101ff9190612e78565b34801561024157600080fd5b506101f26107b0565b34801561025657600080fd5b5061025f6107b6565b6040516101ff9190612e32565b61027f61027a366004612527565b6107c5565b005b34801561028d57600080fd5b506101f261029c3660046124f4565b61080b565b3480156102ad57600080fd5b5061027f6102bc36600461257c565b61081d565b3480156102cd57600080fd5b506102e16102dc3660046124f4565b6108cd565b6040516101ff9190612f74565b3480156102fa57600080fd5b506101f2610a28565b34801561030f57600080fd5b506101f2610a2e565b34801561032457600080fd5b506101f2610a34565b34801561033957600080fd5b5061027f6103483660046123cf565b610a3a565b34801561035957600080fd5b5061027f610368366004612b0c565b610a86565b34801561037957600080fd5b506101f2610abb565b34801561038e57600080fd5b5061027f61039d3660046124f4565b610ac1565b3480156103ae57600080fd5b5061027f6103bd3660046124f4565b610af0565b3480156103ce57600080fd5b506101f2610b1f565b3480156103e357600080fd5b506101f2610b25565b3480156103f857600080fd5b506101f2610b2b565b34801561040d57600080fd5b5061027f61041c3660046125da565b610b31565b34801561042d57600080fd5b5061044161043c36600461250c565b610c6b565b6040516101ff929190612ec6565b34801561045b57600080fd5b5061046f61046a36600461250c565b610d69565b6040516101ff9190612f7f565b34801561048857600080fd5b5061027f6104973660046124f4565b610e2d565b3480156104a857600080fd5b506101f2610e5c565b3480156104bd57600080fd5b506101f2610e62565b3480156104d257600080fd5b506101f2610e68565b3480156104e757600080fd5b506101f2610e70565b3480156104fc57600080fd5b506101f2610e76565b34801561051157600080fd5b506101f2610e7c565b61027f6105283660046123eb565b610e82565b34801561053957600080fd5b5061027f610548366004612b0c565b611444565b60015481565b8151606090806001600160401b038111801561056e57600080fd5b506040519080825280602002602001820160405280156105a857816020015b610595611d97565b81526020019060019003908161058d5790505b50915060005b818110156107a85760008582815181106105c457fe5b60200260200101516040516020016105dc91906135e3565b60408051601f198184030181528282528051602091820120600081815260109092528282208484019093529350600290835b8282101561064a57838260020201604051806040016040529081600082015481526020016001820154815250508152602001906001019061060e565b5050505084838151811061065a57fe5b6020026020010181905250846012600083815260200190815260200160002054101561079f57610688611d97565b60008281526011602052604080822081518083019092529091600290835b828210156106e25783826002020160405180604001604052908160008201548152602001600182015481525050815260200190600101906106a6565b505050509050610728816000600281106106f857fe5b602002015186858151811061070957fe5b602002602001015160006002811061071d57fe5b602002015190611479565b85848151811061073457fe5b602002602001015160006002811061074857fe5b6020020152610778816001602002015186858151811061076457fe5b602002602001015160016002811061071d57fe5b85848151811061078457fe5b602002602001015160016002811061079857fe5b6020020152505b506001016105ae565b505092915050565b600f5481565b6003546001600160a01b031681565b60006107d0346114bd565b90508083146107fa5760405162461bcd60e51b81526004016107f1906131da565b60405180910390fd5b610805848484611520565b50505050565b60126020526000908152604090205481565b600061082885611651565b9050600060055460045483028161083b57fe5b04905061084b878787878761167f565b8015610895576003546040516001600160a01b039091169082156108fc029083906000818181858888f1935050505015801561088b573d6000803e3d6000fd5b50600c8054820190555b604051339082840380156108fc02916000818181858888f193505050501580156108c3573d6000803e3d6000fd5b5050505050505050565b60006108d7611dc4565b5060408051808201909152600080825260208201526108f4611ddb565b60408051600086815260106020528281206080830184529192839290830191600290835b82821015610954578382600202016040518060400160405290816000820154815260200160018201548152505081526020019060010190610918565b5050509082525060008681526011602090815260408083208151808301909252919093019291600290835b828210156109bb57838260020201604051806040016040529081600082015481526020016001820154815250508152602001906001019061097f565b50505091525090506109de828260005b602002015160005b602002015190611ab3565b80156109f957506109f9828260005b602002015160016109d3565b8015610a0c5750610a0c828260016109cb565b8015610a1f5750610a1f828260016109ed565b15949350505050565b60145481565b600e5481565b600a5481565b6003546001600160a01b03163314610a645760405162461bcd60e51b81526004016107f1906130ec565b600380546001600160a01b0319166001600160a01b0392909216919091179055565b6003546001600160a01b03163314610ab05760405162461bcd60e51b81526004016107f19061338f565b600691909155600755565b600d5481565b6003546001600160a01b03163314610aeb5760405162461bcd60e51b81526004016107f190613452565b600155565b6003546001600160a01b03163314610b1a5760405162461bcd60e51b81526004016107f1906130aa565b600255565b600b5481565b60025481565b60005481565b610b39611dc4565b610b67610b4f610b4885611ad5565b8690611afa565b610b6184610b5b611b2c565b90611afa565b90611479565b90506000610ba1308684604051602001610b8393929190612e46565b6040516020818303038152906040528051906020012060001c611b8b565b9050838114610bc25760405162461bcd60e51b81526004016107f19061331c565b600085604051602001610bd591906135e3565b604051602081830303815290604052805190602001209050610bf6816108cd565b15610c135760405162461bcd60e51b81526004016107f190613158565b60008181526011602090815260409091208751815590870151600190910155610c3a611b2c565b6000918252601160209081526040909220815160028201559101516003909101555050600b80546001019055505050565b610c73611d97565b610c7b611d97565b600083604051602001610c8e91906135e3565b60408051601f198184030181528282528051602091820120600081815260109092528282208484019093529350600290835b82821015610cfc578382600202016040518060400160405290816000820154815260200160018201548152505081526020019060010190610cc0565b5050506000838152601160205260408082208151808301909252939650929150600290835b82821015610d5d578382600202016040518060400160405290816000820154815260200160018201548152505081526020019060010190610d21565b50505050915050915091565b6060600082604051602001610d7e91906135e3565b60408051808303601f190181528282528051602091820120600081815260158352839020805460026001821615610100026000190190911604601f81018490048402860184019094528385529094509190830182828015610e205780601f10610df557610100808354040283529160200191610e20565b820191906000526020600020905b815481529060010190602001808311610e0357829003601f168201915b5050505050915050919050565b6003546001600160a01b03163314610e575760405162461bcd60e51b81526004016107f190613353565b600055565b600c5481565b60075481565b63ffffffff81565b60065481565b60055481565b60045481565b82516060816001600160401b0381118015610e9c57600080fd5b50604051908082528060200260200182016040528015610ed657816020015b610ec3611dc4565b815260200190600190039081610ebb5790505b5090506060826001600160401b0381118015610ef157600080fd5b50604051908082528060200260200182016040528015610f2b57816020015b610f18611dc4565b815260200190600190039081610f105790505b50905082885114610f4e5760405162461bcd60e51b81526004016107f190613244565b60005b8381101561114d576000878281518110610f6757fe5b6020026020010151604051602001610f7f91906135e3565b604051602081830303815290604052805190602001209050610fa0816108cd565b610fbc5760405162461bcd60e51b81526004016107f19061318f565b610fc581611bb1565b610fcd611d97565b60008281526011602052604080822081518083019092529091600290835b82821015611027578382600202016040518060400160405290816000820154815260200160018201548152505081526020019060010190610feb565b5050505090506110518b848151811061103c57fe5b60200260200101518260006002811061071d57fe5b60008381526011602090815260409091208251815591015160019182015561107c908b90839061071d565b60008381526011602090815260408083208451600280830191909155948301516003909101556010909152808220815180830190925290929091835b828210156110f45783826002020160405180604001604052908160008201548152602001600182015481525050815260200190600101906110b8565b5050505090506111098b848151811061103c57fe5b85848151811061111557fe5b602090810291909101015261112c8a82600161071d565b84848151811061113857fe5b60209081029190910101525050600101610f51565b5060008560405160200161116191906135e3565b60405160208183030381529060405280519060200120905060005b6013548110156111c557816013828154811061119457fe5b906000526020600020015414156111bd5760405162461bcd60e51b81526004016107f190612fd2565b60010161117c565b50601380546001810182556000919091527f66de8ffda797e3de9c05e8fc57b3bf0ec28a930d40b0d285d93c06501cf6a09001819055611203611e08565b600860009054906101000a90046001600160a01b03166001600160a01b0316639471ac0a85858d8d8d6014548e6040518863ffffffff1660e01b81526004016112529796959493929190612ef5565b60006040518083038186803b15801561126a57600080fd5b505afa15801561127e573d6000803e3d6000fd5b505050506040513d6000823e601f3d908101601f191682016040526112a69190810190612a0a565b90506112b0611e50565b60085460405163f98f0cc960e01b81526001600160a01b039091169063f98f0cc9906112e0908a90600401612f7f565b60006040518083038186803b1580156112f857600080fd5b505afa15801561130c573d6000803e3d6000fd5b505050506040513d6000823e601f3d908101601f1916820160405261133491908101906126f3565b600854604051635294c3c760e11b81529192506001600160a01b03169063a529878e906113679085908590600401613752565b60206040518083038186803b15801561137f57600080fd5b505afa158015611393573d6000803e3d6000fd5b505050506040513d601f19601f820116820180604052508101906113b791906124d4565b6113d35760405162461bcd60e51b81526004016107f19061359f565b60405133903480156108fc02916000818181858888f193505050501580156113ff573d6000803e3d6000fd5b507f9b814ae8a45a4c40d4c60ffa92e0c4b76dec41407cb28b43df9daffa3685f9ac8960405161142f9190612ee2565b60405180910390a15050505050505050505050565b6003546001600160a01b0316331461146e5760405162461bcd60e51b81526004016107f190613407565b600491909155600555565b611481611dc4565b6040518351815260208401516020820152825160408201526020830151606082015260408260808360065afa6114b657600080fd5b5092915050565b6000805482816114c957fe5b06156114e75760405162461bcd60e51b81526004016107f1906132d3565b6000805483816114f357fe5b04905063ffffffff81111561151a5760405162461bcd60e51b81526004016107f19061312a565b92915050565b63ffffffff821115801561153c575063ffffffff82600a540111155b6115585760405162461bcd60e51b81526004016107f190613056565b600a805483019055600e805483019055600f805460010190556040516000906115859085906020016135e3565b6040516020818303038152906040528051906020012090506115a6816108cd565b6115c25760405162461bcd60e51b81526004016107f190613496565b6115cb81611bb1565b6115d3611dc4565b50600081815260116020908152604091829020825180840190935280548352600101549082015261161061160985610b5b611b2c565b8290611479565b60008381526011602090815260408083208451815584830151600190910155601582529091208551929350611649929091860190611f2a565b505050505050565b600063ffffffff8211156116775760405162461bcd60e51b81526004016107f1906134dd565b506000540290565b83600a5410156116a15760405162461bcd60e51b81526004016107f19061350a565b600a805485900390556040516000906116be9087906020016135e3565b6040516020818303038152906040528051906020012090506116df816108cd565b6116fb5760405162461bcd60e51b81526004016107f190613556565b61170481611bb1565b61170c611d97565b60008281526011602052604080822081518083019092529091600290835b8282101561176657838260020201604051806040016040529081600082015481526020016001820154815250508152602001906001019061172a565b50505050905061178b61178361177b88611ad5565b610b5b611b2c565b82600061071d565b6000838152601160209081526040808320845181559382015160019094019390935560109052818120825180840190935290600290835b828210156117fe5783826002020160405180604001604052908160008201548152602001600182015481525050815260200190600101906117c2565b50505050905061181361178361177b88611ad5565b81526040516000906118299087906020016135e3565b60405160208183030381529060405280519060200120905060005b60135481101561188d57816013828154811061185c57fe5b906000526020600020015414156118855760405162461bcd60e51b81526004016107f190613015565b600101611844565b5060138054600181019091557f66de8ffda797e3de9c05e8fc57b3bf0ec28a930d40b0d285d93c06501cf6a09001819055600083815260156020908152604090912085516118dd92870190611f2a565b506118e6611fa8565b60095483516020850151601454604051632ee8a38f60e21b81526001600160a01b039094169363bba28e3c9361192993909290918f91908e9033906004016135f1565b6101406040518083038186803b15801561194257600080fd5b505afa158015611956573d6000803e3d6000fd5b505050506040513d601f19601f8201168201806040525081019061197a9190612987565b9050611984611ff6565b60095460405163f98f0cc960e01b81526001600160a01b039091169063f98f0cc9906119b4908a90600401612f7f565b60006040518083038186803b1580156119cc57600080fd5b505afa1580156119e0573d6000803e3d6000fd5b505050506040513d6000823e601f3d908101601f19168201604052611a08919081019061260d565b60095460405163d039751f60e01b81529192506001600160a01b03169063d039751f90611a3b908590859060040161364a565b60206040518083038186803b158015611a5357600080fd5b505afa158015611a67573d6000803e3d6000fd5b505050506040513d601f19601f82011682018060405250810190611a8b91906124d4565b611aa75760405162461bcd60e51b81526004016107f190613290565b50505050505050505050565b80518251600091148015611ace575081602001518360200151145b9392505050565b7f30644e72e131a029b85045b68181585d2833e84879b9709143e1f593f00000010390565b611b02611dc4565b604051835181526020840151602082015282604082015260408260608360075afa6114b657600080fd5b611b34611dc4565b50604080518082019091527f077da99d806abd13c9f15ece5398525119d11e11e9836b2ee7d23f6159ad87d481527f01485efa927f2ad41bff567eec88f32fb0a0f706588b4e41a8d587d008b7f875602082015290565b7f30644e72e131a029b85045b68181585d2833e84879b9709143e1f593f0000001900690565b600060025460001415611bd1576001544381611bc957fe5b049050611bff565b60025460011415611be7576001544281611bc957fe5b60405162461bcd60e51b81526004016107f1906133da565b600082815260126020526040902054811115611d7857611c1d611ddb565b60408051600085815260106020528281206080830184529192839290830191600290835b82821015611c7d578382600202016040518060400160405290816000820154815260200160018201548152505081526020019060010190611c41565b5050509082525060008581526011602090815260408083208151808301909252919093019291600290835b82821015611ce4578382600202016040518060400160405290816000820154815260200160018201548152505081526020019060010190611ca8565b5050509152506020810151518151919250611d0091600061071d565b600084815260106020908152604090912082518155918101516001928301558281015101518251611d309261071d565b6000848152601060209081526040808320845160028201559382015160039094019390935560119052908120611d659161205b565b5060008281526012602052604090208190555b806014541015611d93576014819055611d9360136000612077565b5050565b60405180604001604052806002905b611dae611dc4565b815260200190600190039081611da65790505090565b604080518082019091526000808252602082015290565b60405180604001604052806002905b611df2611d97565b815260200190600190039081611dea5790505090565b6040518060e00160405280606081526020016060815260200160608152602001611e30611dc4565b81526020016060815260200160008152602001611e4b611dc4565b905290565b604051806103200160405280611e64611dc4565b8152602001611e71611dc4565b8152602001611e7e611dc4565b8152602001611e8b611dc4565b8152602001606081526020016060815260200160608152602001606081526020016060815260200160608152602001606081526020016060815260200160608152602001600081526020016000815260200160008152602001611eec611d97565b815260200160008152602001600081526020016000815260200160008152602001600081526020016000815260200160008152602001611e4b612098565b828054600181600116156101000203166002900490600052602060002090601f016020900481019282601f10611f6b57805160ff1916838001178555611f98565b82800160010185558215611f98579182015b82811115611f98578251825591602001919060010190611f7d565b50611fa49291506120c0565b5090565b6040518060c00160405280611fbb611dc4565b8152602001611fc8611dc4565b8152602001611fd5611dc4565b815260200160008152602001611fe9611dc4565b8152600060209091015290565b60405180610140016040528061200a611dc4565b8152602001612017611dc4565b8152602001612024611d97565b8152602001600081526020016000815260200160008152602001600081526020016000815260200160008152602001611e4b612098565b5060008082556001820181905560028201819055600390910155565b508054600082559060005260206000209081019061209591906120c0565b50565b6040518060800160405280606081526020016060815260200160008152602001600081525090565b5b80821115611fa457600081556001016120c1565b600082601f8301126120e5578081fd5b60406120f08161381a565b915081838560808601111561210457600080fd5b60005b600281101561212e5761211a878361231b565b835260209092019190830190600101612107565b5050505092915050565b600082601f830112612148578081fd5b813561215b61215682613840565b61381a565b818152915060208083019084810160408085028701830188101561217e57600080fd5b60005b858110156121a55761219389846122ea565b85529383019391810191600101612181565b50505050505092915050565b600082601f8301126121c1578081fd5b81516121cf61215682613840565b81815291506020808301908481016040808502870183018810156121f257600080fd5b60005b858110156121a557612207898461231b565b855293830193918101916001016121f5565b600082601f830112612229578081fd5b815161223761215682613840565b81815291506020808301908481018184028601820187101561225857600080fd5b60005b848110156122775781518452928201929082019060010161225b565b505050505092915050565b600082601f830112612292578081fd5b81356001600160401b038111156122a7578182fd5b6122ba601f8201601f191660200161381a565b91508082528360208285010111156122d157600080fd5b8060208401602084013760009082016020015292915050565b6000604082840312156122fb578081fd5b612305604061381a565b9050813581526020820135602082015292915050565b60006040828403121561232c578081fd5b612336604061381a565b9050815181526020820151602082015292915050565b60006080828403121561235d578081fd5b612367608061381a565b905081516001600160401b038082111561238057600080fd5b61238c858386016121b1565b835260208401519150808211156123a257600080fd5b506123af848285016121b1565b602083015250604082015160408201526060820151606082015292915050565b6000602082840312156123e0578081fd5b8135611ace8161385f565b600080600080600060e08688031215612402578081fd5b85356001600160401b0380821115612418578283fd5b61242489838a01612138565b96506124338960208a016122ea565b95506060880135915080821115612448578283fd5b61245489838a01612138565b94506124638960808a016122ea565b935060c0880135915080821115612478578283fd5b5061248588828901612282565b9150509295509295909350565b600080604083850312156124a4578182fd5b82356001600160401b038111156124b9578283fd5b6124c585828601612138565b95602094909401359450505050565b6000602082840312156124e5578081fd5b81518015158114611ace578182fd5b600060208284031215612505578081fd5b5035919050565b60006040828403121561251d578081fd5b611ace83836122ea565b60008060006080848603121561253b578081fd5b61254585856122ea565b92506040840135915060608401356001600160401b03811115612566578182fd5b61257286828701612282565b9150509250925092565b600080600080600060e08688031215612593578283fd5b61259d87876122ea565b9450604086013593506125b387606088016122ea565b925060a08601356001600160401b03808211156125ce578283fd5b61246389838a01612282565b6000806000608084860312156125ee578081fd5b6125f885856122ea565b95604085013595506060909401359392505050565b60006020828403121561261e578081fd5b81516001600160401b0380821115612634578283fd5b908301906101e08286031215612648578283fd5b6101406126548161381a565b61265e878561231b565b815261266d876040860161231b565b602082015261267f87608086016120d5565b60408201526101008481015160608301526101208086015160808401529285015160a083015261016085015160c083015261018085015160e08301526101a0850151818301526101c085015192848411156126d8578687fd5b6126e48985880161234c565b90830152509695505050505050565b600060208284031215612704578081fd5b81516001600160401b038082111561271a578283fd5b90830190610400828603121561272e578283fd5b61032061273a8161381a565b612744878561231b565b8152612753876040860161231b565b6020820152612765876080860161231b565b60408201526127778760c0860161231b565b6060820152610100808501518481111561278f578687fd5b61279b898288016121b1565b60808401525061012080860151858111156127b4578788fd5b6127c08a8289016121b1565b60a08501525061014080870151868111156127d9578889fd5b6127e58b828a016121b1565b60c08601525061016080880151878111156127fe57898afd5b61280a8c828b016121b1565b60e0870152506101808089015188811115612823578a8bfd5b61282f8d828c016121b1565b86880152506101a094508489015188811115612849578a8bfd5b6128558d828c016121b1565b85880152506101c09350838901518881111561286f578a8bfd5b61287b8d828c016121b1565b84880152506101e092508289015188811115612895578a8bfd5b6128a18d828c016121b1565b8388015250610200915081890151888111156128bb578a8bfd5b6128c78d828c01612219565b8288015250506102208089015185870152610240945084890151848701526102609350838901518387015261028092506129038c848b016120d5565b828701526103009150818901518187015250858801518486015261034088015183860152610360880151828601526103808801516102a08601526103a08801516102c08601526103c08801516102e08601526103e0880151955086861115612969578889fd5b6129758b878a0161234c565b90850152509198975050505050505050565b60006101408284031215612999578081fd5b6129a360c061381a565b6129ad848461231b565b81526129bc846040850161231b565b60208201526129ce846080850161231b565b604082015260c083015160608201526129ea8460e0850161231b565b60808201526101208301516129fe8161385f565b60a08201529392505050565b600060208284031215612a1b578081fd5b81516001600160401b0380821115612a31578283fd5b908301906101208286031215612a45578283fd5b612a4f60e061381a565b825182811115612a5d578485fd5b612a69878286016121b1565b825250602083015182811115612a7d578485fd5b612a89878286016121b1565b602083015250604083015182811115612aa0578485fd5b612aac878286016121b1565b604083015250612abf866060850161231b565b606082015260a083015182811115612ad5578485fd5b612ae1878286016121b1565b60808301525060c083015160a0820152612afe8660e0850161231b565b60c082015295945050505050565b60008060408385031215612b1e578182fd5b50508035926020909101359150565b8060005b600281101561080557612b45848351612bce565b6040939093019260209190910190600101612b31565b6000815180845260208085019450808401835b83811015612b9457612b81878351612bce565b6040969096019590820190600101612b6e565b509495945050505050565b6000815180845260208085019450808401835b83811015612b9457815187529582019590820190600101612bb2565b80518252602090810151910152565b6000815160808452612bf26080850182612b5b565b905060208301518482036020860152612c0b8282612b5b565b91505060408301516040850152606083015160608501528091505092915050565b6000610400612c3c848451612bce565b6020830151612c4e6040860182612bce565b506040830151612c616080860182612bce565b506060830151612c7460c0860182612bce565b5060808301516101008281870152612c8e83870183612b5b565b925060a0850151915061012086840381880152612cab8484612b5b565b935060c0860151925061014087850381890152612cc88585612b5b565b945060e08701519350610160888603818a0152612ce58686612b5b565b95508388015194506101809350888603848a0152612d038686612b5b565b95508288015194506101a09250888603838a0152612d218686612b5b565b95508188015194506101c09150888603828a0152612d3f8686612b5b565b9550808801519450506101e0888603818a0152612d5c8686612b5b565b95508388015194506102009350888603848a0152612d7a8686612b9f565b928801516102208a81019190915291880151610240808b019190915290880151610260808b01919091529388015192955091935061028092909190612dc1848a0186612b2d565b91870151610300898101919091529087015161032089015290860151610340880152908501516103608701526102a08501516103808701526102c08501516103a08701526102e08501516103c08701528401518583036103e08701529050612e298282612bdd565b95945050505050565b6001600160a01b0391909116815260200190565b6001600160a01b038416815260a08101612e636020830185612bce565b612e706060830184612bce565b949350505050565b6020808252825182820181905260009190848201906040850190845b81811015612eba57612ea7838551612b2d565b9284019260809290920191600101612e94565b50909695505050505050565b6101008101612ed58285612b2d565b611ace6080830184612b2d565b600060208252611ace6020830184612b5b565b6000610120808352612f098184018b612b5b565b90508281036020840152612f1d818a612b5b565b90508281036040840152612f318189612b5b565b9050612f406060840188612bce565b82810360a0840152612f528187612b5b565b9150508360c0830152612f6860e0830184612bce565b98975050505050505050565b901515815260200190565b6000602080835283518082850152825b81811015612fab57858101830151858201604001528201612f8f565b81811115612fbc5783604083870101525b50601f01601f1916929092016040019392505050565b60208082526023908201527f5b52756279207472616e736665725d204e6f6e636520616c7265616479207365604082015262656e2160e81b606082015260800190565b60208082526021908201527f5b527562792072656465656d5d204e6f6e636520616c7265616479207365656e6040820152602160f81b606082015260800190565b60208082526034908201527f5b52756279206d696e745d204d696e742070757368657320636f6e7472616374604082015273103830b9ba1036b0bc34b6bab6903b30b63ab29760611b606082015260800190565b6020808252603490820152600080516020613875833981519152604082015273371031b430b733b2903937bab732103130b9b29760611b606082015260800190565b602080825260309082015260008051602061387583398151915260408201526f371031b430b733b29030b3b2b731bc9760811b606082015260800190565b60208082526014908201527320b6b7bab73a1037baba1037b3103930b733b29760611b604082015260600190565b6020808252601b908201527f4163636f756e7420616c72656164792072656769737465726564210000000000604082015260600190565b6020808252602b908201527f5b52756279207472616e736665725d204163636f756e74206e6f74207965742060408201526a3932b3b4b9ba32b932b21760a91b606082015260800190565b60208082526044908201527f5b52756279206d696e745d20537065636966696564206d696e7420616d6f756e60408201527f74206973206469666665726e65742066726f6d20746865207061696420616d6f6060820152633ab73a1760e11b608082015260a00190565b6020808252602c908201527f5b52756279207472616e736665725d20496e707574206172726179206c656e6760408201526b7468206d69736d617463682160a01b606082015260800190565b60208082526023908201527f5b527562792072656465656d5d204661696c65643a20766572696669636174696040820152626f6e2160e81b606082015260800190565b60208082526029908201527f4e617469766520616d6f756e74206d757374206265206d756c7469706c65206f604082015268331030903ab734ba1760b91b606082015260800190565b6020808252601f908201527f496e76616c696420726567697374726174696f6e207369676e61747572652100604082015260600190565b6020808252602e9082015260008051602061387583398151915260408201526d371031b430b733b2903ab734ba1760911b606082015260800190565b6020808252603f9082015260008051602061387583398151915260408201527f6e206368616e6765207472616e73666572206665652073747261746567792e00606082015260800190565b60208082526013908201527224b73b30b634b2103937bab732103130b9b29760691b604082015260600190565b6020808252603d9082015260008051602061387583398151915260408201527f6e206368616e67652072656465656d206665652073747261746567792e000000606082015260800190565b6020808252603690820152600080516020613875833981519152604082015275371031b430b733b2903937bab732103632b733ba341760511b606082015260800190565b60208082526027908201527f5b52756279206d696e745d204163636f756e74206e6f7420796574207265676960408201526639ba32b932b21760c91b606082015260800190565b602080825260139082015272416d6f756e74206f7574206f662072616e676560681b604082015260600190565b6020808252602c908201527f5b527562792072656465656d5d204661696c65643a20496e76616c696420726560408201526b3232b2b69030b6b7bab73a1760a11b606082015260800190565b60208082526029908201527f5b527562792072656465656d5d204163636f756e74206e6f742079657420726560408201526833b4b9ba32b932b21760b91b606082015260800190565b60208082526024908201527f5b52756279207472616e736665725d204661696c65643a2076657269666963616040820152633a34b7b760e11b606082015260800190565b6040810161151a8284612bce565b61014081016136008289612bce565b61360d6040830188612bce565b61361a6080830187612bce565b8460c083015261362d60e0830185612bce565b6001600160a01b0392909216610120919091015295945050505050565b600061016061365a838651612bce565b602085015161366c6040850182612bce565b50604085015161367f6080850182612bce565b50606085015160c0840152608085015161369c60e0850182612bce565b5060a085015161012060018060a01b03821681860152826101408601526136c68386018751612bce565b602086015192506136db6101a0860184612bce565b604086015192506101e091506136f382860184612b2d565b6060860151610260860152608086015161028086015260a08601516102a086015260c08601516102c086015260e08601516102e08601526101008601516103008601528501516103208501919091529050612e29610340840182612bdd565b6000604082528351610120806040850152613771610160850183612b5b565b91506020860151603f198086850301606087015261378f8483612b5b565b935060408801519150808685030160808701526137ac8483612b5b565b9350606088015191506137c260a0870183612bce565b60808801519150808685030160e0870152506137de8382612b5b565b92505060a086015161010085015260c08601516137fd82860182612bce565b50508281036020840152612e298185612c2c565b90815260200190565b6040518181016001600160401b038111828210171561383857600080fd5b604052919050565b60006001600160401b03821115613855578081fd5b5060209081020190565b6001600160a01b038116811461209557600080fdfe5065726d697373696f6e2064656e6965643a204f6e6c792061646d696e206361a2646970667358221220988cdb98afdf6257d8f28154a127d8c4cc800aa265276931eb54a6bd6434730c64736f6c634300060c0033",
  "immutableReferences": {},
  "source": "// SPDX-License-Identifier: MIT\r\npragma solidity ^0.6.0;\r\npragma experimental ABIEncoderV2;\r\n\r\nimport \"./Utils.sol\";\r\nimport \"./RubyBase.sol\";\r\n\r\ncontract RubyETH is RubyBase {\r\n\r\n    constructor(address _transfer, address _redeem, uint256 _unit) RubyBase(_transfer, _redeem, _unit) public {\r\n    }\r\n\r\n    function mint(Utils.G1Point memory y, uint256 unitAmount, bytes memory encGuess) public payable {\r\n        uint256 mUnitAmount = toUnitAmount(msg.value);\r\n        require(unitAmount == mUnitAmount, \"[Ruby mint] Specified mint amount is differnet from the paid amount.\");\r\n\r\n        mintBase(y, unitAmount, encGuess);\r\n    }\r\n\r\n    function redeem(Utils.G1Point memory y, uint256 unitAmount, Utils.G1Point memory u, bytes memory proof, bytes memory encGuess) public {\r\n        uint256 nativeAmount = toNativeAmount(unitAmount);\r\n        uint256 fee = nativeAmount * redeem_fee_numerator / redeem_fee_denominator; \r\n\r\n        redeemBase(y, unitAmount, u, proof, encGuess);\r\n\r\n        if (fee > 0) {\r\n            ruby_agency.transfer(fee);\r\n            redeem_fee_log = redeem_fee_log + fee;\r\n        }\r\n        msg.sender.transfer(nativeAmount-fee);\r\n    }\r\n}\r\n\r\n\r\n",
  "sourcePath": "E:\\ruby\\payment-poc\\contracts\\RubyETH.sol",
  "compiler": {
    "name": "solc",
    "version": "0.6.12+commit.27d51765.Emscripten.clang"
  },
  "schemaVersion": "3.4.10",
  "updatedAt": "2023-02-10T03:46:37.211Z",
  "networkType": "ethereum",
  "devdoc": {
    "kind": "dev",
    "methods": {},
    "version": 1
  },
  "userdoc": {
    "kind": "user",
    "methods": {
      "getBalance((bytes32,bytes32)[],uint256)": {
        "notice": "Get the current balances of accounts. If the given `round` is larger than the last roll over round, the returned balances will include pending transfers. "
      }
    },
    "version": 1
  }
}