{
  "contractName": "RubyBase",
  "abi": [
    {
      "inputs": [
        {
          "internalType": "address",
          "name": "_transfer",
          "type": "address"
        },
        {
          "internalType": "address",
          "name": "_redeem",
          "type": "address"
        },
        {
          "internalType": "uint256",
          "name": "_unit",
          "type": "uint256"
        }
      ],
      "stateMutability": "nonpayable",
      "type": "constructor"
    },
    {
      "anonymous": false,
      "inputs": [
        {
          "indexed": false,
          "internalType": "string",
          "name": "label",
          "type": "string"
        },
        {
          "indexed": true,
          "internalType": "uint256",
          "name": "value",
          "type": "uint256"
        }
      ],
      "name": "LogUint256",
      "type": "event"
    },
    {
      "anonymous": false,
      "inputs": [
        {
          "components": [
            {
              "internalType": "bytes32",
              "name": "x",
              "type": "bytes32"
            },
            {
              "internalType": "bytes32",
              "name": "y",
              "type": "bytes32"
            }
          ],
          "indexed": false,
          "internalType": "struct Utils.G1Point[]",
          "name": "parties",
          "type": "tuple[]"
        }
      ],
      "name": "TransferOccurred",
      "type": "event"
    },
    {
      "inputs": [],
      "name": "MAX",
      "outputs": [
        {
          "internalType": "uint256",
          "name": "",
          "type": "uint256"
        }
      ],
      "stateMutability": "view",
      "type": "function"
    },
    {
      "inputs": [],
      "name": "balance_log",
      "outputs": [
        {
          "internalType": "uint256",
          "name": "",
          "type": "uint256"
        }
      ],
      "stateMutability": "view",
      "type": "function"
    },
    {
      "inputs": [],
      "name": "deposits_log",
      "outputs": [
        {
          "internalType": "uint256",
          "name": "",
          "type": "uint256"
        }
      ],
      "stateMutability": "view",
      "type": "function"
    },
    {
      "inputs": [],
      "name": "last_global_update",
      "outputs": [
        {
          "internalType": "uint256",
          "name": "",
          "type": "uint256"
        }
      ],
      "stateMutability": "view",
      "type": "function"
    },
    {
      "inputs": [
        {
          "internalType": "bytes32",
          "name": "",
          "type": "bytes32"
        }
      ],
      "name": "last_roll_over",
      "outputs": [
        {
          "internalType": "uint256",
          "name": "",
          "type": "uint256"
        }
      ],
      "stateMutability": "view",
      "type": "function"
    },
    {
      "inputs": [],
      "name": "mint_count_log",
      "outputs": [
        {
          "internalType": "uint256",
          "name": "",
          "type": "uint256"
        }
      ],
      "stateMutability": "view",
      "type": "function"
    },
    {
      "inputs": [],
      "name": "redeem_fee_denominator",
      "outputs": [
        {
          "internalType": "uint256",
          "name": "",
          "type": "uint256"
        }
      ],
      "stateMutability": "view",
      "type": "function"
    },
    {
      "inputs": [],
      "name": "redeem_fee_log",
      "outputs": [
        {
          "internalType": "uint256",
          "name": "",
          "type": "uint256"
        }
      ],
      "stateMutability": "view",
      "type": "function"
    },
    {
      "inputs": [],
      "name": "redeem_fee_numerator",
      "outputs": [
        {
          "internalType": "uint256",
          "name": "",
          "type": "uint256"
        }
      ],
      "stateMutability": "view",
      "type": "function"
    },
    {
      "inputs": [],
      "name": "round_base",
      "outputs": [
        {
          "internalType": "uint256",
          "name": "",
          "type": "uint256"
        }
      ],
      "stateMutability": "view",
      "type": "function"
    },
    {
      "inputs": [],
      "name": "round_len",
      "outputs": [
        {
          "internalType": "uint256",
          "name": "",
          "type": "uint256"
        }
      ],
      "stateMutability": "view",
      "type": "function"
    },
    {
      "inputs": [],
      "name": "ruby_agency",
      "outputs": [
        {
          "internalType": "address payable",
          "name": "",
          "type": "address"
        }
      ],
      "stateMutability": "view",
      "type": "function"
    },
    {
      "inputs": [],
      "name": "transfer_fee_denominator",
      "outputs": [
        {
          "internalType": "uint256",
          "name": "",
          "type": "uint256"
        }
      ],
      "stateMutability": "view",
      "type": "function"
    },
    {
      "inputs": [],
      "name": "transfer_fee_log",
      "outputs": [
        {
          "internalType": "uint256",
          "name": "",
          "type": "uint256"
        }
      ],
      "stateMutability": "view",
      "type": "function"
    },
    {
      "inputs": [],
      "name": "transfer_fee_numerator",
      "outputs": [
        {
          "internalType": "uint256",
          "name": "",
          "type": "uint256"
        }
      ],
      "stateMutability": "view",
      "type": "function"
    },
    {
      "inputs": [],
      "name": "unit",
      "outputs": [
        {
          "internalType": "uint256",
          "name": "",
          "type": "uint256"
        }
      ],
      "stateMutability": "view",
      "type": "function"
    },
    {
      "inputs": [],
      "name": "users_log",
      "outputs": [
        {
          "internalType": "uint256",
          "name": "",
          "type": "uint256"
        }
      ],
      "stateMutability": "view",
      "type": "function"
    },
    {
      "inputs": [
        {
          "internalType": "uint256",
          "name": "numerator",
          "type": "uint256"
        },
        {
          "internalType": "uint256",
          "name": "denominator",
          "type": "uint256"
        }
      ],
      "name": "setRedeemFeeStrategy",
      "outputs": [],
      "stateMutability": "nonpayable",
      "type": "function"
    },
    {
      "inputs": [
        {
          "internalType": "uint256",
          "name": "numerator",
          "type": "uint256"
        },
        {
          "internalType": "uint256",
          "name": "denominator",
          "type": "uint256"
        }
      ],
      "name": "setTransferFeeStrategy",
      "outputs": [],
      "stateMutability": "nonpayable",
      "type": "function"
    },
    {
      "inputs": [
        {
          "internalType": "uint256",
          "name": "_round_base",
          "type": "uint256"
        }
      ],
      "name": "setRoundBase",
      "outputs": [],
      "stateMutability": "nonpayable",
      "type": "function"
    },
    {
      "inputs": [
        {
          "internalType": "uint256",
          "name": "_round_len",
          "type": "uint256"
        }
      ],
      "name": "setRoundLen",
      "outputs": [],
      "stateMutability": "nonpayable",
      "type": "function"
    },
    {
      "inputs": [
        {
          "internalType": "uint256",
          "name": "_unit",
          "type": "uint256"
        }
      ],
      "name": "setUnit",
      "outputs": [],
      "stateMutability": "nonpayable",
      "type": "function"
    },
    {
      "inputs": [
        {
          "internalType": "address payable",
          "name": "_ruby_agency",
          "type": "address"
        }
      ],
      "name": "setRubyAgency",
      "outputs": [],
      "stateMutability": "nonpayable",
      "type": "function"
    },
    {
      "inputs": [
        {
          "components": [
            {
              "internalType": "bytes32",
              "name": "x",
              "type": "bytes32"
            },
            {
              "internalType": "bytes32",
              "name": "y",
              "type": "bytes32"
            }
          ],
          "internalType": "struct Utils.G1Point",
          "name": "y",
          "type": "tuple"
        },
        {
          "internalType": "uint256",
          "name": "c",
          "type": "uint256"
        },
        {
          "internalType": "uint256",
          "name": "s",
          "type": "uint256"
        }
      ],
      "name": "register",
      "outputs": [],
      "stateMutability": "nonpayable",
      "type": "function"
    },
    {
      "inputs": [
        {
          "internalType": "bytes32",
          "name": "yHash",
          "type": "bytes32"
        }
      ],
      "name": "registered",
      "outputs": [
        {
          "internalType": "bool",
          "name": "",
          "type": "bool"
        }
      ],
      "stateMutability": "view",
      "type": "function"
    },
    {
      "inputs": [
        {
          "components": [
            {
              "internalType": "bytes32",
              "name": "x",
              "type": "bytes32"
            },
            {
              "internalType": "bytes32",
              "name": "y",
              "type": "bytes32"
            }
          ],
          "internalType": "struct Utils.G1Point[]",
          "name": "y",
          "type": "tuple[]"
        },
        {
          "internalType": "uint256",
          "name": "round",
          "type": "uint256"
        }
      ],
      "name": "getBalance",
      "outputs": [
        {
          "components": [
            {
              "internalType": "bytes32",
              "name": "x",
              "type": "bytes32"
            },
            {
              "internalType": "bytes32",
              "name": "y",
              "type": "bytes32"
            }
          ],
          "internalType": "struct Utils.G1Point[2][]",
          "name": "accounts",
          "type": "tuple[2][]"
        }
      ],
      "stateMutability": "view",
      "type": "function"
    },
    {
      "inputs": [
        {
          "components": [
            {
              "internalType": "bytes32",
              "name": "x",
              "type": "bytes32"
            },
            {
              "internalType": "bytes32",
              "name": "y",
              "type": "bytes32"
            }
          ],
          "internalType": "struct Utils.G1Point",
          "name": "y",
          "type": "tuple"
        }
      ],
      "name": "getAccountState",
      "outputs": [
        {
          "components": [
            {
              "internalType": "bytes32",
              "name": "x",
              "type": "bytes32"
            },
            {
              "internalType": "bytes32",
              "name": "y",
              "type": "bytes32"
            }
          ],
          "internalType": "struct Utils.G1Point[2]",
          "name": "y_available",
          "type": "tuple[2]"
        },
        {
          "components": [
            {
              "internalType": "bytes32",
              "name": "x",
              "type": "bytes32"
            },
            {
              "internalType": "bytes32",
              "name": "y",
              "type": "bytes32"
            }
          ],
          "internalType": "struct Utils.G1Point[2]",
          "name": "y_pending",
          "type": "tuple[2]"
        }
      ],
      "stateMutability": "view",
      "type": "function"
    },
    {
      "inputs": [
        {
          "components": [
            {
              "internalType": "bytes32",
              "name": "x",
              "type": "bytes32"
            },
            {
              "internalType": "bytes32",
              "name": "y",
              "type": "bytes32"
            }
          ],
          "internalType": "struct Utils.G1Point",
          "name": "y",
          "type": "tuple"
        }
      ],
      "name": "getGuess",
      "outputs": [
        {
          "internalType": "bytes",
          "name": "y_guess",
          "type": "bytes"
        }
      ],
      "stateMutability": "view",
      "type": "function"
    },
    {
      "inputs": [
        {
          "components": [
            {
              "internalType": "bytes32",
              "name": "x",
              "type": "bytes32"
            },
            {
              "internalType": "bytes32",
              "name": "y",
              "type": "bytes32"
            }
          ],
          "internalType": "struct Utils.G1Point[]",
          "name": "C",
          "type": "tuple[]"
        },
        {
          "components": [
            {
              "internalType": "bytes32",
              "name": "x",
              "type": "bytes32"
            },
            {
              "internalType": "bytes32",
              "name": "y",
              "type": "bytes32"
            }
          ],
          "internalType": "struct Utils.G1Point",
          "name": "D",
          "type": "tuple"
        },
        {
          "components": [
            {
              "internalType": "bytes32",
              "name": "x",
              "type": "bytes32"
            },
            {
              "internalType": "bytes32",
              "name": "y",
              "type": "bytes32"
            }
          ],
          "internalType": "struct Utils.G1Point[]",
          "name": "y",
          "type": "tuple[]"
        },
        {
          "components": [
            {
              "internalType": "bytes32",
              "name": "x",
              "type": "bytes32"
            },
            {
              "internalType": "bytes32",
              "name": "y",
              "type": "bytes32"
            }
          ],
          "internalType": "struct Utils.G1Point",
          "name": "u",
          "type": "tuple"
        },
        {
          "internalType": "bytes",
          "name": "proof",
          "type": "bytes"
        }
      ],
      "name": "transfer",
      "outputs": [],
      "stateMutability": "payable",
      "type": "function"
    }
  ],
  "bytecode": "0x60806040526018600155600060025560016004556064600555600160065560056007556000600a556000600b556000600c556000600d556000600e556000600f5560006014553480156200005257600080fd5b5060405162002c4638038062002c468339810160408190526200007591620000d7565b600380546001600160a01b03199081163317909155600880546001600160a01b03958616908316179055600980549390941692169190911790915560005562000119565b80516001600160a01b0381168114620000d157600080fd5b92915050565b600080600060608486031215620000ec578283fd5b620000f88585620000b9565b9250620001098560208601620000b9565b9150604084015190509250925092565b612b1d80620001296000396000f3fe6080604052600436106101c25760003560e01c806384f9b07a116100f7578063b47e51d711610095578063dcfa1e5d11610064578063dcfa1e5d146104a7578063ddf911da146104bc578063eff4d178146104d1578063f487e952146104e4576101c2565b8063b47e51d714610453578063b5753dee14610468578063d49d51811461047d578063d90d3a5814610492576101c2565b80639b0d85d3116100d15780639b0d85d3146103b8578063a568ce51146103d8578063a9b05a5614610406578063aae0789014610433576101c2565b806384f9b07a146103795780638ad747e01461038e578063907af6c0146103a3576101c2565b806362c4d3a3116101645780637207f20e1161013e5780637207f20e1461030457806375236e3f14610324578063767b7d85146103395780637b5b3b9f14610359576101c2565b806362c4d3a3146102b857806363bb012c146102cd5780636be72c43146102e2576101c2565b80632a6a14bd116101a05780632a6a14bd146102345780634301a344146102565780635524d54814610276578063566a8e62146102a3576101c2565b80630221c717146101c757806327d084e7146101f2578063281111201461021f575b600080fd5b3480156101d357600080fd5b506101dc610504565b6040516101e99190612a77565b60405180910390f35b3480156101fe57600080fd5b5061021261020d366004611cc6565b61050a565b6040516101e99190612499565b34801561022b57600080fd5b506101dc610768565b34801561024057600080fd5b5061024961076e565b6040516101e99190612453565b34801561026257600080fd5b506101dc610271366004611d29565b61077d565b34801561028257600080fd5b50610296610291366004611d29565b61078f565b6040516101e99190612595565b3480156102af57600080fd5b506101dc6108ea565b3480156102c457600080fd5b506101dc6108f0565b3480156102d957600080fd5b506101dc6108f6565b3480156102ee57600080fd5b506103026102fd366004611ba7565b6108fc565b005b34801561031057600080fd5b5061030261031f366004612127565b610951565b34801561033057600080fd5b506101dc610986565b34801561034557600080fd5b50610302610354366004611d29565b61098c565b34801561036557600080fd5b50610302610374366004611d29565b6109bb565b34801561038557600080fd5b506101dc6109ea565b34801561039a57600080fd5b506101dc6109f0565b3480156103af57600080fd5b506101dc6109f6565b3480156103c457600080fd5b506103026103d3366004611d5c565b6109fc565b3480156103e457600080fd5b506103f86103f3366004611d41565b610b36565b6040516101e99291906124e7565b34801561041257600080fd5b50610426610421366004611d41565b610c34565b6040516101e991906125a0565b34801561043f57600080fd5b5061030261044e366004611d29565b610cf8565b34801561045f57600080fd5b506101dc610d27565b34801561047457600080fd5b506101dc610d2d565b34801561048957600080fd5b506101dc610d33565b34801561049e57600080fd5b506101dc610d3b565b3480156104b357600080fd5b506101dc610d41565b3480156104c857600080fd5b506101dc610d47565b6103026104df366004611bd5565b610d4d565b3480156104f057600080fd5b506103026104ff366004612127565b6113a4565b60015481565b81516060908067ffffffffffffffff8111801561052657600080fd5b5060405190808252806020026020018201604052801561056057816020015b61054d611703565b8152602001906001900390816105455790505b50915060005b8181101561076057600085828151811061057c57fe5b602002602001015160405160200161059491906129aa565b60408051601f198184030181528282528051602091820120600081815260109092528282208484019093529350600290835b828210156106025783826002020160405180604001604052908160008201548152602001600182015481525050815260200190600101906105c6565b5050505084838151811061061257fe5b6020026020010181905250846012600083815260200190815260200160002054101561075757610640611703565b60008281526011602052604080822081518083019092529091600290835b8282101561069a57838260020201604051806040016040529081600082015481526020016001820154815250508152602001906001019061065e565b5050505090506106e0816000600281106106b057fe5b60200201518685815181106106c157fe5b60200260200101516000600281106106d557fe5b6020020151906113d9565b8584815181106106ec57fe5b602002602001015160006002811061070057fe5b6020020152610730816001602002015186858151811061071c57fe5b60200260200101516001600281106106d557fe5b85848151811061073c57fe5b602002602001015160016002811061075057fe5b6020020152505b50600101610566565b505092915050565b600f5481565b6003546001600160a01b031681565b60126020526000908152604090205481565b6000610799611730565b5060408051808201909152600080825260208201526107b6611747565b60408051600086815260106020528281206080830184529192839290830191600290835b828210156108165783826002020160405180604001604052908160008201548152602001600182015481525050815260200190600101906107da565b5050509082525060008681526011602090815260408083208151808301909252919093019291600290835b8282101561087d578382600202016040518060400160405290816000820154815260200160018201548152505081526020019060010190610841565b50505091525090506108a0828260005b602002015160005b60200201519061141d565b80156108bb57506108bb828260005b60200201516001610895565b80156108ce57506108ce8282600161088d565b80156108e157506108e1828260016108af565b15949350505050565b60145481565b600e5481565b600a5481565b6003546001600160a01b0316331461092f5760405162461bcd60e51b815260040161092690612678565b60405180910390fd5b600380546001600160a01b0319166001600160a01b0392909216919091179055565b6003546001600160a01b0316331461097b5760405162461bcd60e51b8152600401610926906127f7565b600691909155600755565b600d5481565b6003546001600160a01b031633146109b65760405162461bcd60e51b8152600401610926906128ba565b600155565b6003546001600160a01b031633146109e55760405162461bcd60e51b815260040161092690612636565b600255565b600b5481565b60025481565b60005481565b610a04611730565b610a32610a1a610a1385611441565b8690611466565b610a2c84610a26611498565b90611466565b906113d9565b90506000610a6c308684604051602001610a4e93929190612467565b6040516020818303038152906040528051906020012060001c6114f7565b9050838114610a8d5760405162461bcd60e51b815260040161092690612784565b600085604051602001610aa091906129aa565b604051602081830303815290604052805190602001209050610ac18161078f565b15610ade5760405162461bcd60e51b8152600401610926906126b6565b60008181526011602090815260409091208751815590870151600190910155610b05611498565b6000918252601160209081526040909220815160028201559101516003909101555050600b80546001019055505050565b610b3e611703565b610b46611703565b600083604051602001610b5991906129aa565b60408051601f198184030181528282528051602091820120600081815260109092528282208484019093529350600290835b82821015610bc7578382600202016040518060400160405290816000820154815260200160018201548152505081526020019060010190610b8b565b5050506000838152601160205260408082208151808301909252939650929150600290835b82821015610c28578382600202016040518060400160405290816000820154815260200160018201548152505081526020019060010190610bec565b50505050915050915091565b6060600082604051602001610c4991906129aa565b60408051808303601f190181528282528051602091820120600081815260158352839020805460026001821615610100026000190190911604601f81018490048402860184019094528385529094509190830182828015610ceb5780601f10610cc057610100808354040283529160200191610ceb565b820191906000526020600020905b815481529060010190602001808311610cce57829003601f168201915b5050505050915050919050565b6003546001600160a01b03163314610d225760405162461bcd60e51b8152600401610926906127bb565b600055565b600c5481565b60075481565b63ffffffff81565b60065481565b60055481565b60045481565b60005a845190915060608167ffffffffffffffff81118015610d6e57600080fd5b50604051908082528060200260200182016040528015610da857816020015b610d95611730565b815260200190600190039081610d8d5790505b50905060608267ffffffffffffffff81118015610dc457600080fd5b50604051908082528060200260200182016040528015610dfe57816020015b610deb611730565b815260200190600190039081610de35790505b50905082895114610e215760405162461bcd60e51b815260040161092690612738565b60005b83811015611020576000888281518110610e3a57fe5b6020026020010151604051602001610e5291906129aa565b604051602081830303815290604052805190602001209050610e738161078f565b610e8f5760405162461bcd60e51b8152600401610926906126ed565b610e988161151d565b610ea0611703565b60008281526011602052604080822081518083019092529091600290835b82821015610efa578382600202016040518060400160405290816000820154815260200160018201548152505081526020019060010190610ebe565b505050509050610f248c8481518110610f0f57fe5b6020026020010151826000600281106106d557fe5b600083815260116020908152604090912082518155910151600191820155610f4f908c9083906106d5565b60008381526011602090815260408083208451600280830191909155948301516003909101556010909152808220815180830190925290929091835b82821015610fc7578382600202016040518060400160405290816000820154815260200160018201548152505081526020019060010190610f8b565b505050509050610fdc8c8481518110610f0f57fe5b858481518110610fe857fe5b6020908102919091010152610fff8b8260016106d5565b84848151811061100b57fe5b60209081029190910101525050600101610e24565b5060008660405160200161103491906129aa565b60405160208183030381529060405280519060200120905060005b60135481101561109857816013828154811061106757fe5b906000526020600020015414156110905760405162461bcd60e51b8152600401610926906125f3565b60010161104f565b50601380546001810182556000919091527f66de8ffda797e3de9c05e8fc57b3bf0ec28a930d40b0d285d93c06501cf6a090018190556110d6611774565b600860009054906101000a90046001600160a01b03166001600160a01b0316639471ac0a85858e8e8e6014548f6040518863ffffffff1660e01b81526004016111259796959493929190612516565b60006040518083038186803b15801561113d57600080fd5b505afa158015611151573d6000803e3d6000fd5b505050506040513d6000823e601f3d908101601f191682016040526111799190810190612024565b90506111836117bc565b60085460405163f98f0cc960e01b81526001600160a01b039091169063f98f0cc9906111b3908b906004016125a0565b60006040518083038186803b1580156111cb57600080fd5b505afa1580156111df573d6000803e3d6000fd5b505050506040513d6000823e601f3d908101601f191682016040526112079190810190611d8f565b600854604051635294c3c760e11b81529192506001600160a01b03169063a529878e9061123a90859085906004016129b8565b60206040518083038186803b15801561125257600080fd5b505afa158015611266573d6000803e3d6000fd5b505050506040513d601f19601f8201168201806040525081019061128a9190611d09565b6112a65760405162461bcd60e51b815260040161092690612966565b60005a8803905060003a6007546006548402816112bf57fe5b04029050801561132d57803410156112e95760405162461bcd60e51b8152600401610926906128fe565b6003546040516001600160a01b039091169082156108fc029083906000818181858888f19350505050158015611323573d6000803e3d6000fd5b50600d8054820190555b60405133903483900380156108fc02916000818181858888f1935050505015801561135c573d6000803e3d6000fd5b507f9b814ae8a45a4c40d4c60ffa92e0c4b76dec41407cb28b43df9daffa3685f9ac8c60405161138c9190612503565b60405180910390a15050505050505050505050505050565b6003546001600160a01b031633146113ce5760405162461bcd60e51b81526004016109269061286f565b600491909155600555565b6113e1611730565b6040518351815260208401516020820152825160408201526020830151606082015260408260808360065afa61141657600080fd5b5092915050565b80518251600091148015611438575081602001518360200151145b90505b92915050565b7f30644e72e131a029b85045b68181585d2833e84879b9709143e1f593f00000010390565b61146e611730565b604051835181526020840151602082015282604082015260408260608360075afa61141657600080fd5b6114a0611730565b50604080518082019091527f077da99d806abd13c9f15ece5398525119d11e11e9836b2ee7d23f6159ad87d481527f01485efa927f2ad41bff567eec88f32fb0a0f706588b4e41a8d587d008b7f875602082015290565b7f30644e72e131a029b85045b68181585d2833e84879b9709143e1f593f0000001900690565b60006002546000141561153d57600154438161153557fe5b04905061156b565b6002546001141561155357600154428161153557fe5b60405162461bcd60e51b815260040161092690612842565b6000828152601260205260409020548111156116e457611589611747565b60408051600085815260106020528281206080830184529192839290830191600290835b828210156115e95783826002020160405180604001604052908160008201548152602001600182015481525050815260200190600101906115ad565b5050509082525060008581526011602090815260408083208151808301909252919093019291600290835b82821015611650578382600202016040518060400160405290816000820154815260200160018201548152505081526020019060010190611614565b505050915250602081015151815191925061166c9160006106d5565b60008481526010602090815260409091208251815591810151600192830155828101510151825161169c926106d5565b60008481526010602090815260408083208451600282015593820151600390940193909355601190529081206116d191611896565b5060008281526012602052604090208190555b8060145410156116ff5760148190556116ff601360006118b2565b5050565b60405180604001604052806002905b61171a611730565b8152602001906001900390816117125790505090565b604080518082019091526000808252602082015290565b60405180604001604052806002905b61175e611703565b8152602001906001900390816117565790505090565b6040518060e0016040528060608152602001606081526020016060815260200161179c611730565b815260200160608152602001600081526020016117b7611730565b905290565b6040518061032001604052806117d0611730565b81526020016117dd611730565b81526020016117ea611730565b81526020016117f7611730565b8152602001606081526020016060815260200160608152602001606081526020016060815260200160608152602001606081526020016060815260200160608152602001600081526020016000815260200160008152602001611858611703565b8152602001600081526020016000815260200160008152602001600081526020016000815260200160008152602001600081526020016117b76118d3565b5060008082556001820181905560028201819055600390910155565b50805460008255906000526020600020908101906118d091906118fb565b50565b6040518060800160405280606081526020016060815260200160008152602001600081525090565b5b8082111561191057600081556001016118fc565b5090565b600082601f830112611924578081fd5b604061192f81612a80565b915081838560808601111561194357600080fd5b60005b600281101561196d576119598783611af2565b835260209092019190830190600101611946565b5050505092915050565b600082601f830112611987578081fd5b813561199a61199582612aa7565b612a80565b81815291506020808301908481016040808502870183018810156119bd57600080fd5b60005b858110156119e4576119d28984611ac1565b855293830193918101916001016119c0565b50505050505092915050565b600082601f830112611a00578081fd5b8151611a0e61199582612aa7565b8181529150602080830190848101604080850287018301881015611a3157600080fd5b60005b858110156119e457611a468984611af2565b85529383019391810191600101611a34565b600082601f830112611a68578081fd5b8151611a7661199582612aa7565b818152915060208083019084810181840286018201871015611a9757600080fd5b60005b84811015611ab657815184529282019290820190600101611a9a565b505050505092915050565b600060408284031215611ad2578081fd5b611adc6040612a80565b9050813581526020820135602082015292915050565b600060408284031215611b03578081fd5b611b0d6040612a80565b9050815181526020820151602082015292915050565b600060808284031215611b34578081fd5b611b3e6080612a80565b9050815167ffffffffffffffff80821115611b5857600080fd5b611b64858386016119f0565b83526020840151915080821115611b7a57600080fd5b50611b87848285016119f0565b602083015250604082015160408201526060820151606082015292915050565b600060208284031215611bb8578081fd5b81356001600160a01b0381168114611bce578182fd5b9392505050565b600080600080600060e08688031215611bec578081fd5b853567ffffffffffffffff80821115611c03578283fd5b611c0f89838a01611977565b965060209150611c2189838a01611ac1565b9550606088013581811115611c34578384fd5b611c408a828b01611977565b955050611c508960808a01611ac1565b935060c088013581811115611c63578384fd5b8801601f81018a13611c73578384fd5b803582811115611c81578485fd5b611c93601f8201601f19168501612a80565b92508083528a84828401011115611ca8578485fd5b80848301858501378201909201929092525093969295509093509190565b60008060408385031215611cd8578182fd5b823567ffffffffffffffff811115611cee578283fd5b611cfa85828601611977565b95602094909401359450505050565b600060208284031215611d1a578081fd5b81518015158114611bce578182fd5b600060208284031215611d3a578081fd5b5035919050565b600060408284031215611d52578081fd5b6114388383611ac1565b600080600060808486031215611d70578081fd5b611d7a8585611ac1565b95604085013595506060909401359392505050565b600060208284031215611da0578081fd5b815167ffffffffffffffff80821115611db7578283fd5b908301906104008286031215611dcb578283fd5b610320611dd781612a80565b611de18785611af2565b8152611df08760408601611af2565b6020820152611e028760808601611af2565b6040820152611e148760c08601611af2565b60608201526101008085015184811115611e2c578687fd5b611e38898288016119f0565b6080840152506101208086015185811115611e51578788fd5b611e5d8a8289016119f0565b60a0850152506101408087015186811115611e76578889fd5b611e828b828a016119f0565b60c0860152506101608088015187811115611e9b57898afd5b611ea78c828b016119f0565b60e0870152506101808089015188811115611ec0578a8bfd5b611ecc8d828c016119f0565b86880152506101a094508489015188811115611ee6578a8bfd5b611ef28d828c016119f0565b85880152506101c093508389015188811115611f0c578a8bfd5b611f188d828c016119f0565b84880152506101e092508289015188811115611f32578a8bfd5b611f3e8d828c016119f0565b838801525061020091508189015188811115611f58578a8bfd5b611f648d828c01611a58565b828801525050610220808901518587015261024094508489015184870152610260935083890151838701526102809250611fa08c848b01611914565b828701526103009150818901518187015250858801518486015261034088015183860152610360880151828601526103808801516102a08601526103a08801516102c08601526103c08801516102e08601526103e0880151955086861115612006578889fd5b6120128b878a01611b23565b90850152509198975050505050505050565b600060208284031215612035578081fd5b815167ffffffffffffffff8082111561204c578283fd5b908301906101208286031215612060578283fd5b61206a60e0612a80565b825182811115612078578485fd5b612084878286016119f0565b825250602083015182811115612098578485fd5b6120a4878286016119f0565b6020830152506040830151828111156120bb578485fd5b6120c7878286016119f0565b6040830152506120da8660608501611af2565b606082015260a0830151828111156120f0578485fd5b6120fc878286016119f0565b60808301525060c083015160a08201526121198660e08501611af2565b60c082015295945050505050565b60008060408385031215612139578182fd5b50508035926020909101359150565b8060005b6002811015612176576121608483516121ef565b604093909301926020919091019060010161214c565b50505050565b6000815180845260208085019450808401835b838110156121b5576121a28783516121ef565b604096909601959082019060010161218f565b509495945050505050565b6000815180845260208085019450808401835b838110156121b5578151875295820195908201906001016121d3565b80518252602090810151910152565b6000815160808452612213608085018261217c565b90506020830151848203602086015261222c828261217c565b91505060408301516040850152606083015160608501528091505092915050565b600061040061225d8484516121ef565b602083015161226f60408601826121ef565b50604083015161228260808601826121ef565b50606083015161229560c08601826121ef565b50608083015161010082818701526122af8387018361217c565b925060a08501519150610120868403818801526122cc848461217c565b935060c08601519250610140878503818901526122e9858561217c565b945060e08701519350610160888603818a0152612306868661217c565b95508388015194506101809350888603848a0152612324868661217c565b95508288015194506101a09250888603838a0152612342868661217c565b95508188015194506101c09150888603828a0152612360868661217c565b9550808801519450506101e0888603818a015261237d868661217c565b95508388015194506102009350888603848a015261239b86866121c0565b928801516102208a81019190915291880151610240808b019190915290880151610260808b019190915293880151929550919350610280929091906123e2848a0186612148565b91870151610300898101919091529087015161032089015290860151610340880152908501516103608701526102a08501516103808701526102c08501516103a08701526102e08501516103c08701528401518583036103e0870152905061244a82826121fe565b95945050505050565b6001600160a01b0391909116815260200190565b6001600160a01b038416815260a0810161248460208301856121ef565b61249160608301846121ef565b949350505050565b6020808252825182820181905260009190848201906040850190845b818110156124db576124c8838551612148565b92840192608092909201916001016124b5565b50909695505050505050565b61010081016124f68285612148565b611bce6080830184612148565b600060208252611438602083018461217c565b600061012080835261252a8184018b61217c565b9050828103602084015261253e818a61217c565b90508281036040840152612552818961217c565b905061256160608401886121ef565b82810360a0840152612573818761217c565b9150508360c083015261258960e08301846121ef565b98975050505050505050565b901515815260200190565b6000602080835283518082850152825b818110156125cc578581018301518582016040015282016125b0565b818111156125dd5783604083870101525b50601f01601f1916929092016040019392505050565b60208082526023908201527f5b52756279207472616e736665725d204e6f6e636520616c7265616479207365604082015262656e2160e81b606082015260800190565b6020808252603490820152600080516020612ac8833981519152604082015273371031b430b733b2903937bab732103130b9b29760611b606082015260800190565b6020808252603090820152600080516020612ac883398151915260408201526f371031b430b733b29030b3b2b731bc9760811b606082015260800190565b6020808252601b908201527f4163636f756e7420616c72656164792072656769737465726564210000000000604082015260600190565b6020808252602b908201527f5b52756279207472616e736665725d204163636f756e74206e6f74207965742060408201526a3932b3b4b9ba32b932b21760a91b606082015260800190565b6020808252602c908201527f5b52756279207472616e736665725d20496e707574206172726179206c656e6760408201526b7468206d69736d617463682160a01b606082015260800190565b6020808252601f908201527f496e76616c696420726567697374726174696f6e207369676e61747572652100604082015260600190565b6020808252602e90820152600080516020612ac883398151915260408201526d371031b430b733b2903ab734ba1760911b606082015260800190565b6020808252603f90820152600080516020612ac883398151915260408201527f6e206368616e6765207472616e73666572206665652073747261746567792e00606082015260800190565b60208082526013908201527224b73b30b634b2103937bab732103130b9b29760691b604082015260600190565b6020808252603d90820152600080516020612ac883398151915260408201527f6e206368616e67652072656465656d206665652073747261746567792e000000606082015260800190565b6020808252603690820152600080516020612ac8833981519152604082015275371031b430b733b2903937bab732103632b733ba341760511b606082015260800190565b60208082526042908201527f5b52756279207472616e736665725d204e6f7420656e6f75676820666565207360408201527f656e74207769746820746865207472616e73666572207472616e73616374696f606082015261371760f11b608082015260a00190565b60208082526024908201527f5b52756279207472616e736665725d204661696c65643a2076657269666963616040820152633a34b7b760e11b606082015260800190565b6040810161143b82846121ef565b60006040825283516101208060408501526129d761016085018361217c565b91506020860151603f19808685030160608701526129f5848361217c565b93506040880151915080868503016080870152612a12848361217c565b935060608801519150612a2860a08701836121ef565b60808801519150808685030160e087015250612a44838261217c565b92505060a086015161010085015260c0860151612a63828601826121ef565b5050828103602084015261244a818561224d565b90815260200190565b60405181810167ffffffffffffffff81118282101715612a9f57600080fd5b604052919050565b600067ffffffffffffffff821115612abd578081fd5b506020908102019056fe5065726d697373696f6e2064656e6965643a204f6e6c792061646d696e206361a264697066735822122005ca4b5b3689753f350e0336af06cd060aaede5be6c122245e0e505e4ab31dd464736f6c634300060c0033",
  "immutableReferences": {},
  "source": "// SPDX-License-Identifier: MIT\r\npragma solidity ^0.6.0;\r\npragma experimental ABIEncoderV2;\r\n\r\nimport \"./Utils.sol\";\r\nimport \"./RubyTransfer.sol\";\r\nimport \"./RubyRedeem.sol\";\r\n\r\ncontract RubyBase {\r\n\r\n    using Utils for uint256;\r\n    using Utils for Utils.G1Point;\r\n\r\n    /*\r\n       Max units that can be handled by ruby.\r\n    */\r\n    uint256 public constant MAX = 2**32-1;\r\n\r\n    /* \r\n       The # of tokens that constitute one unit.\r\n       Balances, mints, redeems, and transfers are all interpreted in terms of unit, rather than token. \r\n    */\r\n    uint256 public unit; \r\n\r\n    uint256 public round_len = 24; \r\n    uint256 public round_base = 0; // 0 for block, 1 for second (usually just for test)\r\n\r\n\r\n    address payable public ruby_agency; \r\n\r\n    /* redeem fee: 1/100 of redeem amount */\r\n    uint256 public redeem_fee_numerator = 1;\r\n    uint256 public redeem_fee_denominator = 100;\r\n    /* transfer fee: 1/5 of gas */\r\n    uint256 public transfer_fee_numerator = 1;\r\n    uint256 public transfer_fee_denominator = 5;\r\n\r\n    RubyTransfer ruby_transfer;\r\n    RubyRedeem ruby_redeem;\r\n\r\n    uint256 public balance_log = 0;\r\n    uint256 public users_log = 0;\r\n    uint256 public redeem_fee_log = 0;\r\n    uint256 public transfer_fee_log = 0;\r\n    uint256 public deposits_log = 0;\r\n    uint256 public mint_count_log = 0;\r\n    \r\n\r\n    mapping(bytes32 => Utils.G1Point[2]) acc; // main account mapping\r\n    mapping(bytes32 => Utils.G1Point[2]) pending; // storage for pending transfers\r\n    mapping(bytes32 => uint256) public last_roll_over;\r\n    bytes32[] nonce_set; // would be more natural to use a mapping, but they can't be deleted / reset!\r\n    uint256 public last_global_update = 0; // will be also used as a proxy for \"current round\", seeing as rollovers will be anticipated\r\n    //// not implementing account locking for now...revisit\r\n\r\n    mapping(bytes32 => bytes) guess;\r\n\r\n    event TransferOccurred(Utils.G1Point[] parties); // all parties will be notified, client can determine whether it was real or not.\r\n    //// arg is still necessary for transfers---not even so much to know when you received a transfer, as to know when you got rolled over.\r\n    event LogUint256(string label, uint256 indexed value);\r\n\r\n    constructor(address _transfer, address _redeem, uint256 _unit) public {\r\n        ruby_agency = msg.sender;\r\n        ruby_transfer = RubyTransfer(_transfer);\r\n        ruby_redeem = RubyRedeem(_redeem);\r\n        unit = _unit;\r\n    }\r\n\r\n    function toUnitAmount(uint256 nativeAmount) internal view returns (uint256) {\r\n        require(nativeAmount % unit == 0, \"Native amount must be multiple of a unit.\");\r\n        uint256 amount = nativeAmount / unit;\r\n        require(0 <= amount && amount <= MAX, \"Amount out of range.\"); \r\n        return amount;\r\n    }\r\n\r\n    function toNativeAmount(uint256 unitAmount) internal view returns (uint256) {\r\n        require(0 <= unitAmount && unitAmount <= MAX, \"Amount out of range\");\r\n        return unitAmount * unit;\r\n    }\r\n\r\n    function setRedeemFeeStrategy(uint256 numerator, uint256 denominator) public {\r\n        require(msg.sender == ruby_agency, \"Permission denied: Only admin can change redeem fee strategy.\");\r\n        redeem_fee_numerator = numerator;\r\n        redeem_fee_denominator = denominator;\r\n    }\r\n\r\n    function setTransferFeeStrategy(uint256 numerator, uint256 denominator) public {\r\n        require(msg.sender == ruby_agency, \"Permission denied: Only admin can change transfer fee strategy.\");\r\n        transfer_fee_numerator = numerator;\r\n        transfer_fee_denominator = denominator;\r\n    }\r\n\r\n    function setRoundBase (uint256 _round_base) public {\r\n        require(msg.sender == ruby_agency, \"Permission denied: Only admin can change round base.\");\r\n        round_base = _round_base;\r\n    }\r\n\r\n    function setRoundLen (uint256 _round_len) public {\r\n        require(msg.sender == ruby_agency, \"Permission denied: Only admin can change round length.\");\r\n        round_len = _round_len;\r\n    }\r\n\r\n    function setUnit (uint256 _unit) public {\r\n        require(msg.sender == ruby_agency, \"Permission denied: Only admin can change unit.\");\r\n        unit = _unit;\r\n    }\r\n\r\n    function setRubyAgency (address payable _ruby_agency) public {\r\n        require(msg.sender == ruby_agency, \"Permission denied: Only admin can change agency.\");\r\n        ruby_agency = _ruby_agency;\r\n    }\r\n\r\n    function register(Utils.G1Point memory y, uint256 c, uint256 s) public {\r\n        // allows y to participate. c, s should be a Schnorr signature on \"this\"\r\n        Utils.G1Point memory K = Utils.g().pMul(s).pAdd(y.pMul(c.gNeg()));\r\n        uint256 challenge = uint256(keccak256(abi.encode(address(this), y, K))).gMod();\r\n        require(challenge == c, \"Invalid registration signature!\");\r\n        bytes32 yHash = keccak256(abi.encode(y));\r\n        require(!registered(yHash), \"Account already registered!\");\r\n        // pending[yHash] = [y, Utils.g()]; // \"not supported\" yet, have to do the below\r\n\r\n        /*\r\n            The following initial value of pending[yHash] is equivalent to an ElGamal encryption of m = 0, with nonce r = 1:\r\n            (mG + ry, rG) --> (y, G)\r\n            If we don't set pending in this way, then we can't differentiate two cases:\r\n            1. The account is not registered (both acc and pending are 0, because `mapping` has initial value for all keys)\r\n            2. The account has a total balance of 0 (both acc and pending are 0)\r\n\r\n            With such a setting, we can guarantee that, once an account is registered, its `acc` and `pending` can never (crytographically negligible) BOTH equal to Point zero.\r\n            NOTE: `pending` can be reset to Point zero after a roll over.\r\n        */\r\n        pending[yHash][0] = y;\r\n        pending[yHash][1] = Utils.g();\r\n\r\n        users_log = users_log + 1;\r\n    }\r\n\r\n    function registered(bytes32 yHash) public view returns (bool) {\r\n        Utils.G1Point memory zero = Utils.G1Point(0, 0);\r\n        Utils.G1Point[2][2] memory scratch = [acc[yHash], pending[yHash]];\r\n        return !(scratch[0][0].pEqual(zero) && scratch[0][1].pEqual(zero) && scratch[1][0].pEqual(zero) && scratch[1][1].pEqual(zero));\r\n    }\r\n\r\n    /**\r\n      Get the current balances of accounts. If the given `round` is larger than the last roll over round, the returned balances\r\n      will include pending transfers. \r\n    */\r\n    function getBalance(Utils.G1Point[] memory y, uint256 round) view public returns (Utils.G1Point[2][] memory accounts) {\r\n        // in this function and others, i have to use public + memory (and hence, a superfluous copy from calldata)\r\n        // only because calldata structs aren't yet supported by solidity. revisit this in the future.\r\n        uint256 size = y.length;\r\n        accounts = new Utils.G1Point[2][](size);\r\n        for (uint256 i = 0; i < size; i++) {\r\n            bytes32 yHash = keccak256(abi.encode(y[i]));\r\n            accounts[i] = acc[yHash];\r\n            if (last_roll_over[yHash] < round) {\r\n                Utils.G1Point[2] memory scratch = pending[yHash];\r\n                accounts[i][0] = accounts[i][0].pAdd(scratch[0]);\r\n                accounts[i][1] = accounts[i][1].pAdd(scratch[1]);\r\n            }\r\n        }\r\n    }\r\n\r\n    function getAccountState (Utils.G1Point memory y) public view returns (Utils.G1Point[2] memory y_available, Utils.G1Point[2] memory y_pending) {\r\n        bytes32 yHash = keccak256(abi.encode(y));\r\n        y_available = acc[yHash];\r\n        y_pending = pending[yHash];\r\n        return (y_available, y_pending);\r\n    }\r\n\r\n    function getGuess (Utils.G1Point memory y) public view returns (bytes memory y_guess) {\r\n        bytes32 yHash = keccak256(abi.encode(y));\r\n        y_guess = guess[yHash];\r\n        return y_guess;\r\n    }\r\n\r\n    function rollOver(bytes32 yHash) internal {\r\n        uint256 e = 0;\r\n        if (round_base == 0)\r\n            e = block.number / round_len;\r\n        else if (round_base == 1)\r\n            e = block.timestamp / round_len;\r\n        else\r\n            revert(\"Invalid round base.\");\r\n\r\n        if (last_roll_over[yHash] < e) {\r\n            Utils.G1Point[2][2] memory scratch = [acc[yHash], pending[yHash]];\r\n            acc[yHash][0] = scratch[0][0].pAdd(scratch[1][0]);\r\n            acc[yHash][1] = scratch[0][1].pAdd(scratch[1][1]);\r\n            // acc[yHash] = scratch[0]; // can't do this---have to do the above instead (and spend 2 sloads / stores)---because \"not supported\". revisit\r\n            delete pending[yHash]; // pending[yHash] = [Utils.G1Point(0, 0), Utils.G1Point(0, 0)];\r\n            last_roll_over[yHash] = e;\r\n        }\r\n        if (last_global_update < e) {\r\n            last_global_update = e;\r\n            delete nonce_set;\r\n        }\r\n    }\r\n\r\n    function mintBase(Utils.G1Point memory y, uint256 amount, bytes memory encGuess) internal {\r\n\r\n        require(amount <= MAX && balance_log + amount <= MAX, \"[Ruby mint] Mint pushes contract past maximum value.\");\r\n        balance_log += amount;\r\n        deposits_log += amount;\r\n        mint_count_log += 1;\r\n\r\n        bytes32 yHash = keccak256(abi.encode(y));\r\n        require(registered(yHash), \"[Ruby mint] Account not yet registered.\");\r\n        rollOver(yHash);\r\n\r\n        Utils.G1Point memory scratch = pending[yHash][0];\r\n        scratch = scratch.pAdd(Utils.g().pMul(amount));\r\n        pending[yHash][0] = scratch;\r\n\r\n        guess[yHash] = encGuess;\r\n    }\r\n\r\n    function redeemBase(Utils.G1Point memory y, uint256 amount, Utils.G1Point memory u, bytes memory proof, bytes memory encGuess) internal {\r\n\r\n        require(balance_log >= amount, \"[Ruby redeem] Failed: Invalid redeem amount.\");\r\n        balance_log -= amount;\r\n        \r\n\r\n        bytes32 yHash = keccak256(abi.encode(y));\r\n        require(registered(yHash), \"[Ruby redeem] Account not yet registered.\");\r\n        rollOver(yHash);\r\n\r\n        Utils.G1Point[2] memory scratch = pending[yHash];\r\n        pending[yHash][0] = scratch[0].pAdd(Utils.g().pMul(amount.gNeg()));\r\n\r\n        scratch = acc[yHash]; // simulate debit of acc---just for use in verification, won't be applied\r\n        scratch[0] = scratch[0].pAdd(Utils.g().pMul(amount.gNeg()));\r\n        bytes32 uHash = keccak256(abi.encode(u));\r\n        for (uint256 i = 0; i < nonce_set.length; i++) {\r\n            require(nonce_set[i] != uHash, \"[Ruby redeem] Nonce already seen!\");\r\n        }\r\n        nonce_set.push(uHash);\r\n\r\n        guess[yHash] = encGuess;\r\n\r\n        RubyRedeem.Statement memory ruby_stm = ruby_redeem.wrapStatement(scratch[0], scratch[1], y, last_global_update, u, msg.sender);\r\n        RubyRedeem.Proof memory ruby_proof = ruby_redeem.unserialize(proof);\r\n\r\n        require(ruby_redeem.verify(ruby_stm, ruby_proof), \"[Ruby redeem] Failed: verification!\");\r\n    }\r\n\r\n    function transfer(Utils.G1Point[] memory C, Utils.G1Point memory D, \r\n                      Utils.G1Point[] memory y, Utils.G1Point memory u, \r\n                      bytes memory proof) public payable {\r\n\r\n        uint256 startGas = gasleft();\r\n\r\n        // TODO: check that sender and receiver should NOT be equal.\r\n        uint256 size = y.length;\r\n        Utils.G1Point[] memory CLn = new Utils.G1Point[](size);\r\n        Utils.G1Point[] memory CRn = new Utils.G1Point[](size);\r\n        require(C.length == size, \"[Ruby transfer] Input array length mismatch!\");\r\n\r\n\r\n        for (uint256 i = 0; i < size; i++) {\r\n            bytes32 yHash = keccak256(abi.encode(y[i]));\r\n            require(registered(yHash), \"[Ruby transfer] Account not yet registered.\");\r\n            rollOver(yHash);\r\n            Utils.G1Point[2] memory scratch = pending[yHash];\r\n            pending[yHash][0] = scratch[0].pAdd(C[i]);\r\n            pending[yHash][1] = scratch[1].pAdd(D);\r\n            // pending[yHash] = scratch; // can't do this, so have to use 2 sstores _anyway_ (as in above)\r\n\r\n            scratch = acc[yHash];\r\n            CLn[i] = scratch[0].pAdd(C[i]);\r\n            CRn[i] = scratch[1].pAdd(D);\r\n        }\r\n\r\n        bytes32 uHash = keccak256(abi.encode(u));\r\n        for (uint256 i = 0; i < nonce_set.length; i++) {\r\n            require(nonce_set[i] != uHash, \"[Ruby transfer] Nonce already seen!\");\r\n        }\r\n        nonce_set.push(uHash);\r\n\r\n        RubyTransfer.Statement memory ruby_stm = ruby_transfer.wrapStatement(CLn, CRn, C, D, y, last_global_update, u);\r\n        RubyTransfer.Proof memory ruby_proof = ruby_transfer.unserialize(proof);\r\n\r\n        require(ruby_transfer.verify(ruby_stm, ruby_proof), \"[Ruby transfer] Failed: verification\");\r\n\r\n        uint256 usedGas = startGas - gasleft();\r\n        \r\n        uint256 fee = (usedGas * transfer_fee_numerator / transfer_fee_denominator) * tx.gasprice;\r\n        if (fee > 0) {\r\n            require(msg.value >= fee, \"[Ruby transfer] Not enough fee sent with the transfer transaction.\");\r\n            ruby_agency.transfer(fee);\r\n            transfer_fee_log = transfer_fee_log + fee;\r\n        }\r\n        msg.sender.transfer(msg.value - fee);\r\n\r\n        emit TransferOccurred(y);\r\n    }\r\n\r\n\r\n}\r\n\r\n\r\n",
  "sourcePath": "RubyBase.sol",
  "compiler": {
    "name": "solc",
    "version": "0.6.12+commit.27d51765.Emscripten.clang"
  },
  "schemaVersion": "3.4.10",
  "updatedAt": "2022-12-15T13:28:25.892Z",
  "devdoc": {
    "kind": "dev",
    "methods": {},
    "version": 1
  },
  "userdoc": {
    "kind": "user",
    "methods": {
      "getBalance((bytes32,bytes32)[],uint256)": {
        "notice": "Get the current balances of accounts. If the given `round` is larger than the last roll over round, the returned balances will include pending transfers. "
      }
    },
    "version": 1
  }
}