{
  "contractName": "RubyETH",
  "abi": [
    {
      "inputs": [
        {
          "internalType": "address",
          "name": "_transfer",
          "type": "address"
        },
        {
          "internalType": "address",
          "name": "_redeem",
          "type": "address"
        },
        {
          "internalType": "uint256",
          "name": "_unit",
          "type": "uint256"
        }
      ],
      "stateMutability": "nonpayable",
      "type": "constructor"
    },
    {
      "anonymous": false,
      "inputs": [
        {
          "indexed": false,
          "internalType": "string",
          "name": "label",
          "type": "string"
        },
        {
          "indexed": true,
          "internalType": "uint256",
          "name": "value",
          "type": "uint256"
        }
      ],
      "name": "LogUint256",
      "type": "event"
    },
    {
      "anonymous": false,
      "inputs": [
        {
          "components": [
            {
              "internalType": "bytes32",
              "name": "x",
              "type": "bytes32"
            },
            {
              "internalType": "bytes32",
              "name": "y",
              "type": "bytes32"
            }
          ],
          "indexed": false,
          "internalType": "struct Utils.G1Point[]",
          "name": "parties",
          "type": "tuple[]"
        }
      ],
      "name": "TransferOccurred",
      "type": "event"
    },
    {
      "inputs": [],
      "name": "MAX",
      "outputs": [
        {
          "internalType": "uint256",
          "name": "",
          "type": "uint256"
        }
      ],
      "stateMutability": "view",
      "type": "function"
    },
    {
      "inputs": [],
      "name": "balance_log",
      "outputs": [
        {
          "internalType": "uint256",
          "name": "",
          "type": "uint256"
        }
      ],
      "stateMutability": "view",
      "type": "function"
    },
    {
      "inputs": [],
      "name": "deposits_log",
      "outputs": [
        {
          "internalType": "uint256",
          "name": "",
          "type": "uint256"
        }
      ],
      "stateMutability": "view",
      "type": "function"
    },
    {
      "inputs": [
        {
          "components": [
            {
              "internalType": "bytes32",
              "name": "x",
              "type": "bytes32"
            },
            {
              "internalType": "bytes32",
              "name": "y",
              "type": "bytes32"
            }
          ],
          "internalType": "struct Utils.G1Point",
          "name": "y",
          "type": "tuple"
        }
      ],
      "name": "getAccountState",
      "outputs": [
        {
          "components": [
            {
              "internalType": "bytes32",
              "name": "x",
              "type": "bytes32"
            },
            {
              "internalType": "bytes32",
              "name": "y",
              "type": "bytes32"
            }
          ],
          "internalType": "struct Utils.G1Point[2]",
          "name": "y_available",
          "type": "tuple[2]"
        },
        {
          "components": [
            {
              "internalType": "bytes32",
              "name": "x",
              "type": "bytes32"
            },
            {
              "internalType": "bytes32",
              "name": "y",
              "type": "bytes32"
            }
          ],
          "internalType": "struct Utils.G1Point[2]",
          "name": "y_pending",
          "type": "tuple[2]"
        }
      ],
      "stateMutability": "view",
      "type": "function"
    },
    {
      "inputs": [
        {
          "components": [
            {
              "internalType": "bytes32",
              "name": "x",
              "type": "bytes32"
            },
            {
              "internalType": "bytes32",
              "name": "y",
              "type": "bytes32"
            }
          ],
          "internalType": "struct Utils.G1Point[]",
          "name": "y",
          "type": "tuple[]"
        },
        {
          "internalType": "uint256",
          "name": "round",
          "type": "uint256"
        }
      ],
      "name": "getBalance",
      "outputs": [
        {
          "components": [
            {
              "internalType": "bytes32",
              "name": "x",
              "type": "bytes32"
            },
            {
              "internalType": "bytes32",
              "name": "y",
              "type": "bytes32"
            }
          ],
          "internalType": "struct Utils.G1Point[2][]",
          "name": "accounts",
          "type": "tuple[2][]"
        }
      ],
      "stateMutability": "view",
      "type": "function"
    },
    {
      "inputs": [
        {
          "components": [
            {
              "internalType": "bytes32",
              "name": "x",
              "type": "bytes32"
            },
            {
              "internalType": "bytes32",
              "name": "y",
              "type": "bytes32"
            }
          ],
          "internalType": "struct Utils.G1Point",
          "name": "y",
          "type": "tuple"
        }
      ],
      "name": "getGuess",
      "outputs": [
        {
          "internalType": "bytes",
          "name": "y_guess",
          "type": "bytes"
        }
      ],
      "stateMutability": "view",
      "type": "function"
    },
    {
      "inputs": [],
      "name": "last_global_update",
      "outputs": [
        {
          "internalType": "uint256",
          "name": "",
          "type": "uint256"
        }
      ],
      "stateMutability": "view",
      "type": "function"
    },
    {
      "inputs": [
        {
          "internalType": "bytes32",
          "name": "",
          "type": "bytes32"
        }
      ],
      "name": "last_roll_over",
      "outputs": [
        {
          "internalType": "uint256",
          "name": "",
          "type": "uint256"
        }
      ],
      "stateMutability": "view",
      "type": "function"
    },
    {
      "inputs": [],
      "name": "mint_count_log",
      "outputs": [
        {
          "internalType": "uint256",
          "name": "",
          "type": "uint256"
        }
      ],
      "stateMutability": "view",
      "type": "function"
    },
    {
      "inputs": [],
      "name": "redeem_fee_denominator",
      "outputs": [
        {
          "internalType": "uint256",
          "name": "",
          "type": "uint256"
        }
      ],
      "stateMutability": "view",
      "type": "function"
    },
    {
      "inputs": [],
      "name": "redeem_fee_log",
      "outputs": [
        {
          "internalType": "uint256",
          "name": "",
          "type": "uint256"
        }
      ],
      "stateMutability": "view",
      "type": "function"
    },
    {
      "inputs": [],
      "name": "redeem_fee_numerator",
      "outputs": [
        {
          "internalType": "uint256",
          "name": "",
          "type": "uint256"
        }
      ],
      "stateMutability": "view",
      "type": "function"
    },
    {
      "inputs": [
        {
          "components": [
            {
              "internalType": "bytes32",
              "name": "x",
              "type": "bytes32"
            },
            {
              "internalType": "bytes32",
              "name": "y",
              "type": "bytes32"
            }
          ],
          "internalType": "struct Utils.G1Point",
          "name": "y",
          "type": "tuple"
        },
        {
          "internalType": "uint256",
          "name": "c",
          "type": "uint256"
        },
        {
          "internalType": "uint256",
          "name": "s",
          "type": "uint256"
        }
      ],
      "name": "register",
      "outputs": [],
      "stateMutability": "nonpayable",
      "type": "function"
    },
    {
      "inputs": [
        {
          "internalType": "bytes32",
          "name": "yHash",
          "type": "bytes32"
        }
      ],
      "name": "registered",
      "outputs": [
        {
          "internalType": "bool",
          "name": "",
          "type": "bool"
        }
      ],
      "stateMutability": "view",
      "type": "function"
    },
    {
      "inputs": [],
      "name": "round_base",
      "outputs": [
        {
          "internalType": "uint256",
          "name": "",
          "type": "uint256"
        }
      ],
      "stateMutability": "view",
      "type": "function"
    },
    {
      "inputs": [],
      "name": "round_len",
      "outputs": [
        {
          "internalType": "uint256",
          "name": "",
          "type": "uint256"
        }
      ],
      "stateMutability": "view",
      "type": "function"
    },
    {
      "inputs": [],
      "name": "ruby_agency",
      "outputs": [
        {
          "internalType": "address payable",
          "name": "",
          "type": "address"
        }
      ],
      "stateMutability": "view",
      "type": "function"
    },
    {
      "inputs": [
        {
          "internalType": "uint256",
          "name": "numerator",
          "type": "uint256"
        },
        {
          "internalType": "uint256",
          "name": "denominator",
          "type": "uint256"
        }
      ],
      "name": "setRedeemFeeStrategy",
      "outputs": [],
      "stateMutability": "nonpayable",
      "type": "function"
    },
    {
      "inputs": [
        {
          "internalType": "uint256",
          "name": "_round_base",
          "type": "uint256"
        }
      ],
      "name": "setRoundBase",
      "outputs": [],
      "stateMutability": "nonpayable",
      "type": "function"
    },
    {
      "inputs": [
        {
          "internalType": "uint256",
          "name": "_round_len",
          "type": "uint256"
        }
      ],
      "name": "setRoundLen",
      "outputs": [],
      "stateMutability": "nonpayable",
      "type": "function"
    },
    {
      "inputs": [
        {
          "internalType": "address payable",
          "name": "_ruby_agency",
          "type": "address"
        }
      ],
      "name": "setRubyAgency",
      "outputs": [],
      "stateMutability": "nonpayable",
      "type": "function"
    },
    {
      "inputs": [
        {
          "internalType": "uint256",
          "name": "numerator",
          "type": "uint256"
        },
        {
          "internalType": "uint256",
          "name": "denominator",
          "type": "uint256"
        }
      ],
      "name": "setTransferFeeStrategy",
      "outputs": [],
      "stateMutability": "nonpayable",
      "type": "function"
    },
    {
      "inputs": [
        {
          "internalType": "uint256",
          "name": "_unit",
          "type": "uint256"
        }
      ],
      "name": "setUnit",
      "outputs": [],
      "stateMutability": "nonpayable",
      "type": "function"
    },
    {
      "inputs": [
        {
          "components": [
            {
              "internalType": "bytes32",
              "name": "x",
              "type": "bytes32"
            },
            {
              "internalType": "bytes32",
              "name": "y",
              "type": "bytes32"
            }
          ],
          "internalType": "struct Utils.G1Point[]",
          "name": "C",
          "type": "tuple[]"
        },
        {
          "components": [
            {
              "internalType": "bytes32",
              "name": "x",
              "type": "bytes32"
            },
            {
              "internalType": "bytes32",
              "name": "y",
              "type": "bytes32"
            }
          ],
          "internalType": "struct Utils.G1Point",
          "name": "D",
          "type": "tuple"
        },
        {
          "components": [
            {
              "internalType": "bytes32",
              "name": "x",
              "type": "bytes32"
            },
            {
              "internalType": "bytes32",
              "name": "y",
              "type": "bytes32"
            }
          ],
          "internalType": "struct Utils.G1Point[]",
          "name": "y",
          "type": "tuple[]"
        },
        {
          "components": [
            {
              "internalType": "bytes32",
              "name": "x",
              "type": "bytes32"
            },
            {
              "internalType": "bytes32",
              "name": "y",
              "type": "bytes32"
            }
          ],
          "internalType": "struct Utils.G1Point",
          "name": "u",
          "type": "tuple"
        },
        {
          "internalType": "bytes",
          "name": "proof",
          "type": "bytes"
        }
      ],
      "name": "transfer",
      "outputs": [],
      "stateMutability": "payable",
      "type": "function"
    },
    {
      "inputs": [],
      "name": "transfer_fee_denominator",
      "outputs": [
        {
          "internalType": "uint256",
          "name": "",
          "type": "uint256"
        }
      ],
      "stateMutability": "view",
      "type": "function"
    },
    {
      "inputs": [],
      "name": "transfer_fee_log",
      "outputs": [
        {
          "internalType": "uint256",
          "name": "",
          "type": "uint256"
        }
      ],
      "stateMutability": "view",
      "type": "function"
    },
    {
      "inputs": [],
      "name": "transfer_fee_numerator",
      "outputs": [
        {
          "internalType": "uint256",
          "name": "",
          "type": "uint256"
        }
      ],
      "stateMutability": "view",
      "type": "function"
    },
    {
      "inputs": [],
      "name": "unit",
      "outputs": [
        {
          "internalType": "uint256",
          "name": "",
          "type": "uint256"
        }
      ],
      "stateMutability": "view",
      "type": "function"
    },
    {
      "inputs": [],
      "name": "users_log",
      "outputs": [
        {
          "internalType": "uint256",
          "name": "",
          "type": "uint256"
        }
      ],
      "stateMutability": "view",
      "type": "function"
    },
    {
      "inputs": [
        {
          "components": [
            {
              "internalType": "bytes32",
              "name": "x",
              "type": "bytes32"
            },
            {
              "internalType": "bytes32",
              "name": "y",
              "type": "bytes32"
            }
          ],
          "internalType": "struct Utils.G1Point",
          "name": "y",
          "type": "tuple"
        },
        {
          "internalType": "uint256",
          "name": "unitAmount",
          "type": "uint256"
        },
        {
          "internalType": "bytes",
          "name": "encGuess",
          "type": "bytes"
        }
      ],
      "name": "mint",
      "outputs": [],
      "stateMutability": "payable",
      "type": "function"
    },
    {
      "inputs": [
        {
          "components": [
            {
              "internalType": "bytes32",
              "name": "x",
              "type": "bytes32"
            },
            {
              "internalType": "bytes32",
              "name": "y",
              "type": "bytes32"
            }
          ],
          "internalType": "struct Utils.G1Point",
          "name": "y",
          "type": "tuple"
        },
        {
          "internalType": "uint256",
          "name": "unitAmount",
          "type": "uint256"
        },
        {
          "components": [
            {
              "internalType": "bytes32",
              "name": "x",
              "type": "bytes32"
            },
            {
              "internalType": "bytes32",
              "name": "y",
              "type": "bytes32"
            }
          ],
          "internalType": "struct Utils.G1Point",
          "name": "u",
          "type": "tuple"
        },
        {
          "internalType": "bytes",
          "name": "proof",
          "type": "bytes"
        },
        {
          "internalType": "bytes",
          "name": "encGuess",
          "type": "bytes"
        }
      ],
      "name": "redeem",
      "outputs": [],
      "stateMutability": "nonpayable",
      "type": "function"
    }
  ],
  "bytecode": "0x60806040526018600155600060025560016004556064600555600160065560056007556000600a556000600b556000600c556000600d556000600e556000600f5560006014553480156200005257600080fd5b5060405162003aed38038062003aed8339810160408190526200007591620000d6565b600380546001600160a01b03199081163317909155600880546001600160a01b039586169083161790556009805494909316931692909217905560005562000118565b80516001600160a01b0381168114620000d057600080fd5b92915050565b600080600060608486031215620000eb578283fd5b620000f78585620000b8565b9250620001088560208601620000b8565b9150604084015190509250925092565b6139c580620001286000396000f3fe6080604052600436106101d85760003560e01c80637b5b3b9f11610102578063b47e51d711610095578063dcfa1e5d11610064578063dcfa1e5d146104f0578063ddf911da14610505578063eff4d1781461051a578063f487e9521461052d576101d8565b8063b47e51d71461049c578063b5753dee146104b1578063d49d5181146104c6578063d90d3a58146104db576101d8565b80639b0d85d3116100d15780639b0d85d314610401578063a568ce5114610421578063a9b05a561461044f578063aae078901461047c576101d8565b80637b5b3b9f146103a257806384f9b07a146103c25780638ad747e0146103d7578063907af6c0146103ec576101d8565b80635524d5481161017a5780636be72c43116101495780636be72c431461032d5780637207f20e1461034d57806375236e3f1461036d578063767b7d8514610382576101d8565b80635524d548146102c1578063566a8e62146102ee57806362c4d3a31461030357806363bb012c14610318576101d8565b80632a6a14bd116101b65780632a6a14bd1461024a5780632a6b024b1461026c5780634301a344146102815780634ad729e0146102a1576101d8565b80630221c717146101dd57806327d084e7146102085780632811112014610235575b600080fd5b3480156101e957600080fd5b506101f261054d565b6040516101ff919061390c565b60405180910390f35b34801561021457600080fd5b50610228610223366004612525565b610553565b6040516101ff9190612f0b565b34801561024157600080fd5b506101f26107b0565b34801561025657600080fd5b5061025f6107b6565b6040516101ff9190612ec5565b61027f61027a3660046125ba565b6107c5565b005b34801561028d57600080fd5b506101f261029c366004612587565b61080b565b3480156102ad57600080fd5b5061027f6102bc36600461260f565b61081d565b3480156102cd57600080fd5b506102e16102dc366004612587565b6108cd565b6040516101ff9190613007565b3480156102fa57600080fd5b506101f2610a28565b34801561030f57600080fd5b506101f2610a2e565b34801561032457600080fd5b506101f2610a34565b34801561033957600080fd5b5061027f610348366004612462565b610a3a565b34801561035957600080fd5b5061027f610368366004612b9f565b610a86565b34801561037957600080fd5b506101f2610abb565b34801561038e57600080fd5b5061027f61039d366004612587565b610ac1565b3480156103ae57600080fd5b5061027f6103bd366004612587565b610af0565b3480156103ce57600080fd5b506101f2610b1f565b3480156103e357600080fd5b506101f2610b25565b3480156103f857600080fd5b506101f2610b2b565b34801561040d57600080fd5b5061027f61041c36600461266d565b610b31565b34801561042d57600080fd5b5061044161043c36600461259f565b610c6b565b6040516101ff929190612f59565b34801561045b57600080fd5b5061046f61046a36600461259f565b610d69565b6040516101ff9190613012565b34801561048857600080fd5b5061027f610497366004612587565b610e2d565b3480156104a857600080fd5b506101f2610e5c565b3480156104bd57600080fd5b506101f2610e62565b3480156104d257600080fd5b506101f2610e68565b3480156104e757600080fd5b506101f2610e70565b3480156104fc57600080fd5b506101f2610e76565b34801561051157600080fd5b506101f2610e7c565b61027f61052836600461247e565b610e82565b34801561053957600080fd5b5061027f610548366004612b9f565b6114d7565b60015481565b8151606090806001600160401b038111801561056e57600080fd5b506040519080825280602002602001820160405280156105a857816020015b610595611e2a565b81526020019060019003908161058d5790505b50915060005b818110156107a85760008582815181106105c457fe5b60200260200101516040516020016105dc91906136de565b60408051601f198184030181528282528051602091820120600081815260109092528282208484019093529350600290835b8282101561064a57838260020201604051806040016040529081600082015481526020016001820154815250508152602001906001019061060e565b5050505084838151811061065a57fe5b6020026020010181905250846012600083815260200190815260200160002054101561079f57610688611e2a565b60008281526011602052604080822081518083019092529091600290835b828210156106e25783826002020160405180604001604052908160008201548152602001600182015481525050815260200190600101906106a6565b505050509050610728816000600281106106f857fe5b602002015186858151811061070957fe5b602002602001015160006002811061071d57fe5b60200201519061150c565b85848151811061073457fe5b602002602001015160006002811061074857fe5b6020020152610778816001602002015186858151811061076457fe5b602002602001015160016002811061071d57fe5b85848151811061078457fe5b602002602001015160016002811061079857fe5b6020020152505b506001016105ae565b505092915050565b600f5481565b6003546001600160a01b031681565b60006107d034611550565b90508083146107fa5760405162461bcd60e51b81526004016107f19061326d565b60405180910390fd5b6108058484846115b3565b50505050565b60126020526000908152604090205481565b6000610828856116e4565b9050600060055460045483028161083b57fe5b04905061084b8787878787611712565b8015610895576003546040516001600160a01b039091169082156108fc029083906000818181858888f1935050505015801561088b573d6000803e3d6000fd5b50600c8054820190555b604051339082840380156108fc02916000818181858888f193505050501580156108c3573d6000803e3d6000fd5b5050505050505050565b60006108d7611e57565b5060408051808201909152600080825260208201526108f4611e6e565b60408051600086815260106020528281206080830184529192839290830191600290835b82821015610954578382600202016040518060400160405290816000820154815260200160018201548152505081526020019060010190610918565b5050509082525060008681526011602090815260408083208151808301909252919093019291600290835b828210156109bb57838260020201604051806040016040529081600082015481526020016001820154815250508152602001906001019061097f565b50505091525090506109de828260005b602002015160005b602002015190611b46565b80156109f957506109f9828260005b602002015160016109d3565b8015610a0c5750610a0c828260016109cb565b8015610a1f5750610a1f828260016109ed565b15949350505050565b60145481565b600e5481565b600a5481565b6003546001600160a01b03163314610a645760405162461bcd60e51b81526004016107f19061317f565b600380546001600160a01b0319166001600160a01b0392909216919091179055565b6003546001600160a01b03163314610ab05760405162461bcd60e51b81526004016107f190613422565b600691909155600755565b600d5481565b6003546001600160a01b03163314610aeb5760405162461bcd60e51b81526004016107f1906134e5565b600155565b6003546001600160a01b03163314610b1a5760405162461bcd60e51b81526004016107f19061313d565b600255565b600b5481565b60025481565b60005481565b610b39611e57565b610b67610b4f610b4885611b68565b8690611b8d565b610b6184610b5b611bbf565b90611b8d565b9061150c565b90506000610ba1308684604051602001610b8393929190612ed9565b6040516020818303038152906040528051906020012060001c611c1e565b9050838114610bc25760405162461bcd60e51b81526004016107f1906133af565b600085604051602001610bd591906136de565b604051602081830303815290604052805190602001209050610bf6816108cd565b15610c135760405162461bcd60e51b81526004016107f1906131eb565b60008181526011602090815260409091208751815590870151600190910155610c3a611bbf565b6000918252601160209081526040909220815160028201559101516003909101555050600b80546001019055505050565b610c73611e2a565b610c7b611e2a565b600083604051602001610c8e91906136de565b60408051601f198184030181528282528051602091820120600081815260109092528282208484019093529350600290835b82821015610cfc578382600202016040518060400160405290816000820154815260200160018201548152505081526020019060010190610cc0565b5050506000838152601160205260408082208151808301909252939650929150600290835b82821015610d5d578382600202016040518060400160405290816000820154815260200160018201548152505081526020019060010190610d21565b50505050915050915091565b6060600082604051602001610d7e91906136de565b60408051808303601f190181528282528051602091820120600081815260158352839020805460026001821615610100026000190190911604601f81018490048402860184019094528385529094509190830182828015610e205780601f10610df557610100808354040283529160200191610e20565b820191906000526020600020905b815481529060010190602001808311610e0357829003601f168201915b5050505050915050919050565b6003546001600160a01b03163314610e575760405162461bcd60e51b81526004016107f1906133e6565b600055565b600c5481565b60075481565b63ffffffff81565b60065481565b60055481565b60045481565b60005a84519091506060816001600160401b0381118015610ea257600080fd5b50604051908082528060200260200182016040528015610edc57816020015b610ec9611e57565b815260200190600190039081610ec15790505b5090506060826001600160401b0381118015610ef757600080fd5b50604051908082528060200260200182016040528015610f3157816020015b610f1e611e57565b815260200190600190039081610f165790505b50905082895114610f545760405162461bcd60e51b81526004016107f1906132d7565b60005b83811015611153576000888281518110610f6d57fe5b6020026020010151604051602001610f8591906136de565b604051602081830303815290604052805190602001209050610fa6816108cd565b610fc25760405162461bcd60e51b81526004016107f190613222565b610fcb81611c44565b610fd3611e2a565b60008281526011602052604080822081518083019092529091600290835b8282101561102d578382600202016040518060400160405290816000820154815260200160018201548152505081526020019060010190610ff1565b5050505090506110578c848151811061104257fe5b60200260200101518260006002811061071d57fe5b600083815260116020908152604090912082518155910151600191820155611082908c90839061071d565b60008381526011602090815260408083208451600280830191909155948301516003909101556010909152808220815180830190925290929091835b828210156110fa5783826002020160405180604001604052908160008201548152602001600182015481525050815260200190600101906110be565b50505050905061110f8c848151811061104257fe5b85848151811061111b57fe5b60209081029190910101526111328b82600161071d565b84848151811061113e57fe5b60209081029190910101525050600101610f57565b5060008660405160200161116791906136de565b60405160208183030381529060405280519060200120905060005b6013548110156111cb57816013828154811061119a57fe5b906000526020600020015414156111c35760405162461bcd60e51b81526004016107f190613065565b600101611182565b50601380546001810182556000919091527f66de8ffda797e3de9c05e8fc57b3bf0ec28a930d40b0d285d93c06501cf6a09001819055611209611e9b565b600860009054906101000a90046001600160a01b03166001600160a01b0316639471ac0a85858e8e8e6014548f6040518863ffffffff1660e01b81526004016112589796959493929190612f88565b60006040518083038186803b15801561127057600080fd5b505afa158015611284573d6000803e3d6000fd5b505050506040513d6000823e601f3d908101601f191682016040526112ac9190810190612a9d565b90506112b6611ee3565b60085460405163f98f0cc960e01b81526001600160a01b039091169063f98f0cc9906112e6908b90600401613012565b60006040518083038186803b1580156112fe57600080fd5b505afa158015611312573d6000803e3d6000fd5b505050506040513d6000823e601f3d908101601f1916820160405261133a9190810190612786565b600854604051635294c3c760e11b81529192506001600160a01b03169063a529878e9061136d908590859060040161384d565b60206040518083038186803b15801561138557600080fd5b505afa158015611399573d6000803e3d6000fd5b505050506040513d601f19601f820116820180604052508101906113bd9190612567565b6113d95760405162461bcd60e51b81526004016107f19061369a565b60005a8803905060003a6007546006548402816113f257fe5b040290508015611460578034101561141c5760405162461bcd60e51b81526004016107f190613570565b6003546040516001600160a01b039091169082156108fc029083906000818181858888f19350505050158015611456573d6000803e3d6000fd5b50600d8054820190555b60405133903483900380156108fc02916000818181858888f1935050505015801561148f573d6000803e3d6000fd5b507f9b814ae8a45a4c40d4c60ffa92e0c4b76dec41407cb28b43df9daffa3685f9ac8c6040516114bf9190612f75565b60405180910390a15050505050505050505050505050565b6003546001600160a01b031633146115015760405162461bcd60e51b81526004016107f19061349a565b600491909155600555565b611514611e57565b6040518351815260208401516020820152825160408201526020830151606082015260408260808360065afa61154957600080fd5b5092915050565b60008054828161155c57fe5b061561157a5760405162461bcd60e51b81526004016107f190613366565b60008054838161158657fe5b04905063ffffffff8111156115ad5760405162461bcd60e51b81526004016107f1906131bd565b92915050565b63ffffffff82111580156115cf575063ffffffff82600a540111155b6115eb5760405162461bcd60e51b81526004016107f1906130e9565b600a805483019055600e805483019055600f805460010190556040516000906116189085906020016136de565b604051602081830303815290604052805190602001209050611639816108cd565b6116555760405162461bcd60e51b81526004016107f190613529565b61165e81611c44565b611666611e57565b5060008181526011602090815260409182902082518084019093528054835260010154908201526116a361169c85610b5b611bbf565b829061150c565b600083815260116020908152604080832084518155848301516001909101556015825290912085519293506116dc929091860190611fbd565b505050505050565b600063ffffffff82111561170a5760405162461bcd60e51b81526004016107f1906135d8565b506000540290565b83600a5410156117345760405162461bcd60e51b81526004016107f190613605565b600a805485900390556040516000906117519087906020016136de565b604051602081830303815290604052805190602001209050611772816108cd565b61178e5760405162461bcd60e51b81526004016107f190613651565b61179781611c44565b61179f611e2a565b60008281526011602052604080822081518083019092529091600290835b828210156117f95783826002020160405180604001604052908160008201548152602001600182015481525050815260200190600101906117bd565b50505050905061181e61181661180e88611b68565b610b5b611bbf565b82600061071d565b6000838152601160209081526040808320845181559382015160019094019390935560109052818120825180840190935290600290835b82821015611891578382600202016040518060400160405290816000820154815260200160018201548152505081526020019060010190611855565b5050505090506118a661181661180e88611b68565b81526040516000906118bc9087906020016136de565b60405160208183030381529060405280519060200120905060005b6013548110156119205781601382815481106118ef57fe5b906000526020600020015414156119185760405162461bcd60e51b81526004016107f1906130a8565b6001016118d7565b5060138054600181019091557f66de8ffda797e3de9c05e8fc57b3bf0ec28a930d40b0d285d93c06501cf6a090018190556000838152601560209081526040909120855161197092870190611fbd565b5061197961203b565b60095483516020850151601454604051632ee8a38f60e21b81526001600160a01b039094169363bba28e3c936119bc93909290918f91908e9033906004016136ec565b6101406040518083038186803b1580156119d557600080fd5b505afa1580156119e9573d6000803e3d6000fd5b505050506040513d601f19601f82011682018060405250810190611a0d9190612a1a565b9050611a17612089565b60095460405163f98f0cc960e01b81526001600160a01b039091169063f98f0cc990611a47908a90600401613012565b60006040518083038186803b158015611a5f57600080fd5b505afa158015611a73573d6000803e3d6000fd5b505050506040513d6000823e601f3d908101601f19168201604052611a9b91908101906126a0565b60095460405163d039751f60e01b81529192506001600160a01b03169063d039751f90611ace9085908590600401613745565b60206040518083038186803b158015611ae657600080fd5b505afa158015611afa573d6000803e3d6000fd5b505050506040513d601f19601f82011682018060405250810190611b1e9190612567565b611b3a5760405162461bcd60e51b81526004016107f190613323565b50505050505050505050565b80518251600091148015611b61575081602001518360200151145b9392505050565b7f30644e72e131a029b85045b68181585d2833e84879b9709143e1f593f00000010390565b611b95611e57565b604051835181526020840151602082015282604082015260408260608360075afa61154957600080fd5b611bc7611e57565b50604080518082019091527f077da99d806abd13c9f15ece5398525119d11e11e9836b2ee7d23f6159ad87d481527f01485efa927f2ad41bff567eec88f32fb0a0f706588b4e41a8d587d008b7f875602082015290565b7f30644e72e131a029b85045b68181585d2833e84879b9709143e1f593f0000001900690565b600060025460001415611c64576001544381611c5c57fe5b049050611c92565b60025460011415611c7a576001544281611c5c57fe5b60405162461bcd60e51b81526004016107f19061346d565b600082815260126020526040902054811115611e0b57611cb0611e6e565b60408051600085815260106020528281206080830184529192839290830191600290835b82821015611d10578382600202016040518060400160405290816000820154815260200160018201548152505081526020019060010190611cd4565b5050509082525060008581526011602090815260408083208151808301909252919093019291600290835b82821015611d77578382600202016040518060400160405290816000820154815260200160018201548152505081526020019060010190611d3b565b5050509152506020810151518151919250611d9391600061071d565b600084815260106020908152604090912082518155918101516001928301558281015101518251611dc39261071d565b6000848152601060209081526040808320845160028201559382015160039094019390935560119052908120611df8916120ee565b5060008281526012602052604090208190555b806014541015611e26576014819055611e266013600061210a565b5050565b60405180604001604052806002905b611e41611e57565b815260200190600190039081611e395790505090565b604080518082019091526000808252602082015290565b60405180604001604052806002905b611e85611e2a565b815260200190600190039081611e7d5790505090565b6040518060e00160405280606081526020016060815260200160608152602001611ec3611e57565b81526020016060815260200160008152602001611ede611e57565b905290565b604051806103200160405280611ef7611e57565b8152602001611f04611e57565b8152602001611f11611e57565b8152602001611f1e611e57565b8152602001606081526020016060815260200160608152602001606081526020016060815260200160608152602001606081526020016060815260200160608152602001600081526020016000815260200160008152602001611f7f611e2a565b815260200160008152602001600081526020016000815260200160008152602001600081526020016000815260200160008152602001611ede61212b565b828054600181600116156101000203166002900490600052602060002090601f016020900481019282601f10611ffe57805160ff191683800117855561202b565b8280016001018555821561202b579182015b8281111561202b578251825591602001919060010190612010565b50612037929150612153565b5090565b6040518060c0016040528061204e611e57565b815260200161205b611e57565b8152602001612068611e57565b81526020016000815260200161207c611e57565b8152600060209091015290565b60405180610140016040528061209d611e57565b81526020016120aa611e57565b81526020016120b7611e2a565b8152602001600081526020016000815260200160008152602001600081526020016000815260200160008152602001611ede61212b565b5060008082556001820181905560028201819055600390910155565b50805460008255906000526020600020908101906121289190612153565b50565b6040518060800160405280606081526020016060815260200160008152602001600081525090565b5b808211156120375760008155600101612154565b600082601f830112612178578081fd5b604061218381613915565b915081838560808601111561219757600080fd5b60005b60028110156121c1576121ad87836123ae565b83526020909201919083019060010161219a565b5050505092915050565b600082601f8301126121db578081fd5b81356121ee6121e98261393b565b613915565b818152915060208083019084810160408085028701830188101561221157600080fd5b60005b8581101561223857612226898461237d565b85529383019391810191600101612214565b50505050505092915050565b600082601f830112612254578081fd5b81516122626121e98261393b565b818152915060208083019084810160408085028701830188101561228557600080fd5b60005b858110156122385761229a89846123ae565b85529383019391810191600101612288565b600082601f8301126122bc578081fd5b81516122ca6121e98261393b565b8181529150602080830190848101818402860182018710156122eb57600080fd5b60005b8481101561230a578151845292820192908201906001016122ee565b505050505092915050565b600082601f830112612325578081fd5b81356001600160401b0381111561233a578182fd5b61234d601f8201601f1916602001613915565b915080825283602082850101111561236457600080fd5b8060208401602084013760009082016020015292915050565b60006040828403121561238e578081fd5b6123986040613915565b9050813581526020820135602082015292915050565b6000604082840312156123bf578081fd5b6123c96040613915565b9050815181526020820151602082015292915050565b6000608082840312156123f0578081fd5b6123fa6080613915565b905081516001600160401b038082111561241357600080fd5b61241f85838601612244565b8352602084015191508082111561243557600080fd5b5061244284828501612244565b602083015250604082015160408201526060820151606082015292915050565b600060208284031215612473578081fd5b8135611b618161395a565b600080600080600060e08688031215612495578081fd5b85356001600160401b03808211156124ab578283fd5b6124b789838a016121cb565b96506124c68960208a0161237d565b955060608801359150808211156124db578283fd5b6124e789838a016121cb565b94506124f68960808a0161237d565b935060c088013591508082111561250b578283fd5b5061251888828901612315565b9150509295509295909350565b60008060408385031215612537578182fd5b82356001600160401b0381111561254c578283fd5b612558858286016121cb565b95602094909401359450505050565b600060208284031215612578578081fd5b81518015158114611b61578182fd5b600060208284031215612598578081fd5b5035919050565b6000604082840312156125b0578081fd5b611b61838361237d565b6000806000608084860312156125ce578081fd5b6125d8858561237d565b92506040840135915060608401356001600160401b038111156125f9578182fd5b61260586828701612315565b9150509250925092565b600080600080600060e08688031215612626578283fd5b612630878761237d565b945060408601359350612646876060880161237d565b925060a08601356001600160401b0380821115612661578283fd5b6124f689838a01612315565b600080600060808486031215612681578081fd5b61268b858561237d565b95604085013595506060909401359392505050565b6000602082840312156126b1578081fd5b81516001600160401b03808211156126c7578283fd5b908301906101e082860312156126db578283fd5b6101406126e781613915565b6126f187856123ae565b815261270087604086016123ae565b60208201526127128760808601612168565b60408201526101008481015160608301526101208086015160808401529285015160a083015261016085015160c083015261018085015160e08301526101a0850151818301526101c0850151928484111561276b578687fd5b612777898588016123df565b90830152509695505050505050565b600060208284031215612797578081fd5b81516001600160401b03808211156127ad578283fd5b9083019061040082860312156127c1578283fd5b6103206127cd81613915565b6127d787856123ae565b81526127e687604086016123ae565b60208201526127f887608086016123ae565b604082015261280a8760c086016123ae565b60608201526101008085015184811115612822578687fd5b61282e89828801612244565b6080840152506101208086015185811115612847578788fd5b6128538a828901612244565b60a085015250610140808701518681111561286c578889fd5b6128788b828a01612244565b60c086015250610160808801518781111561289157898afd5b61289d8c828b01612244565b60e08701525061018080890151888111156128b6578a8bfd5b6128c28d828c01612244565b86880152506101a0945084890151888111156128dc578a8bfd5b6128e88d828c01612244565b85880152506101c093508389015188811115612902578a8bfd5b61290e8d828c01612244565b84880152506101e092508289015188811115612928578a8bfd5b6129348d828c01612244565b83880152506102009150818901518881111561294e578a8bfd5b61295a8d828c016122ac565b8288015250506102208089015185870152610240945084890151848701526102609350838901518387015261028092506129968c848b01612168565b828701526103009150818901518187015250858801518486015261034088015183860152610360880151828601526103808801516102a08601526103a08801516102c08601526103c08801516102e08601526103e08801519550868611156129fc578889fd5b612a088b878a016123df565b90850152509198975050505050505050565b60006101408284031215612a2c578081fd5b612a3660c0613915565b612a4084846123ae565b8152612a4f84604085016123ae565b6020820152612a6184608085016123ae565b604082015260c08301516060820152612a7d8460e085016123ae565b6080820152610120830151612a918161395a565b60a08201529392505050565b600060208284031215612aae578081fd5b81516001600160401b0380821115612ac4578283fd5b908301906101208286031215612ad8578283fd5b612ae260e0613915565b825182811115612af0578485fd5b612afc87828601612244565b825250602083015182811115612b10578485fd5b612b1c87828601612244565b602083015250604083015182811115612b33578485fd5b612b3f87828601612244565b604083015250612b5286606085016123ae565b606082015260a083015182811115612b68578485fd5b612b7487828601612244565b60808301525060c083015160a0820152612b918660e085016123ae565b60c082015295945050505050565b60008060408385031215612bb1578182fd5b50508035926020909101359150565b8060005b600281101561080557612bd8848351612c61565b6040939093019260209190910190600101612bc4565b6000815180845260208085019450808401835b83811015612c2757612c14878351612c61565b6040969096019590820190600101612c01565b509495945050505050565b6000815180845260208085019450808401835b83811015612c2757815187529582019590820190600101612c45565b80518252602090810151910152565b6000815160808452612c856080850182612bee565b905060208301518482036020860152612c9e8282612bee565b91505060408301516040850152606083015160608501528091505092915050565b6000610400612ccf848451612c61565b6020830151612ce16040860182612c61565b506040830151612cf46080860182612c61565b506060830151612d0760c0860182612c61565b5060808301516101008281870152612d2183870183612bee565b925060a0850151915061012086840381880152612d3e8484612bee565b935060c0860151925061014087850381890152612d5b8585612bee565b945060e08701519350610160888603818a0152612d788686612bee565b95508388015194506101809350888603848a0152612d968686612bee565b95508288015194506101a09250888603838a0152612db48686612bee565b95508188015194506101c09150888603828a0152612dd28686612bee565b9550808801519450506101e0888603818a0152612def8686612bee565b95508388015194506102009350888603848a0152612e0d8686612c32565b928801516102208a81019190915291880151610240808b019190915290880151610260808b01919091529388015192955091935061028092909190612e54848a0186612bc0565b91870151610300898101919091529087015161032089015290860151610340880152908501516103608701526102a08501516103808701526102c08501516103a08701526102e08501516103c08701528401518583036103e08701529050612ebc8282612c70565b95945050505050565b6001600160a01b0391909116815260200190565b6001600160a01b038416815260a08101612ef66020830185612c61565b612f036060830184612c61565b949350505050565b6020808252825182820181905260009190848201906040850190845b81811015612f4d57612f3a838551612bc0565b9284019260809290920191600101612f27565b50909695505050505050565b6101008101612f688285612bc0565b611b616080830184612bc0565b600060208252611b616020830184612bee565b6000610120808352612f9c8184018b612bee565b90508281036020840152612fb0818a612bee565b90508281036040840152612fc48189612bee565b9050612fd36060840188612c61565b82810360a0840152612fe58187612bee565b9150508360c0830152612ffb60e0830184612c61565b98975050505050505050565b901515815260200190565b6000602080835283518082850152825b8181101561303e57858101830151858201604001528201613022565b8181111561304f5783604083870101525b50601f01601f1916929092016040019392505050565b60208082526023908201527f5b52756279207472616e736665725d204e6f6e636520616c7265616479207365604082015262656e2160e81b606082015260800190565b60208082526021908201527f5b527562792072656465656d5d204e6f6e636520616c7265616479207365656e6040820152602160f81b606082015260800190565b60208082526034908201527f5b52756279206d696e745d204d696e742070757368657320636f6e7472616374604082015273103830b9ba1036b0bc34b6bab6903b30b63ab29760611b606082015260800190565b6020808252603490820152600080516020613970833981519152604082015273371031b430b733b2903937bab732103130b9b29760611b606082015260800190565b602080825260309082015260008051602061397083398151915260408201526f371031b430b733b29030b3b2b731bc9760811b606082015260800190565b60208082526014908201527320b6b7bab73a1037baba1037b3103930b733b29760611b604082015260600190565b6020808252601b908201527f4163636f756e7420616c72656164792072656769737465726564210000000000604082015260600190565b6020808252602b908201527f5b52756279207472616e736665725d204163636f756e74206e6f74207965742060408201526a3932b3b4b9ba32b932b21760a91b606082015260800190565b60208082526044908201527f5b52756279206d696e745d20537065636966696564206d696e7420616d6f756e60408201527f74206973206469666665726e65742066726f6d20746865207061696420616d6f6060820152633ab73a1760e11b608082015260a00190565b6020808252602c908201527f5b52756279207472616e736665725d20496e707574206172726179206c656e6760408201526b7468206d69736d617463682160a01b606082015260800190565b60208082526023908201527f5b527562792072656465656d5d204661696c65643a20766572696669636174696040820152626f6e2160e81b606082015260800190565b60208082526029908201527f4e617469766520616d6f756e74206d757374206265206d756c7469706c65206f604082015268331030903ab734ba1760b91b606082015260800190565b6020808252601f908201527f496e76616c696420726567697374726174696f6e207369676e61747572652100604082015260600190565b6020808252602e9082015260008051602061397083398151915260408201526d371031b430b733b2903ab734ba1760911b606082015260800190565b6020808252603f9082015260008051602061397083398151915260408201527f6e206368616e6765207472616e73666572206665652073747261746567792e00606082015260800190565b60208082526013908201527224b73b30b634b2103937bab732103130b9b29760691b604082015260600190565b6020808252603d9082015260008051602061397083398151915260408201527f6e206368616e67652072656465656d206665652073747261746567792e000000606082015260800190565b6020808252603690820152600080516020613970833981519152604082015275371031b430b733b2903937bab732103632b733ba341760511b606082015260800190565b60208082526027908201527f5b52756279206d696e745d204163636f756e74206e6f7420796574207265676960408201526639ba32b932b21760c91b606082015260800190565b60208082526042908201527f5b52756279207472616e736665725d204e6f7420656e6f75676820666565207360408201527f656e74207769746820746865207472616e73666572207472616e73616374696f606082015261371760f11b608082015260a00190565b602080825260139082015272416d6f756e74206f7574206f662072616e676560681b604082015260600190565b6020808252602c908201527f5b527562792072656465656d5d204661696c65643a20496e76616c696420726560408201526b3232b2b69030b6b7bab73a1760a11b606082015260800190565b60208082526029908201527f5b527562792072656465656d5d204163636f756e74206e6f742079657420726560408201526833b4b9ba32b932b21760b91b606082015260800190565b60208082526024908201527f5b52756279207472616e736665725d204661696c65643a2076657269666963616040820152633a34b7b760e11b606082015260800190565b604081016115ad8284612c61565b61014081016136fb8289612c61565b6137086040830188612c61565b6137156080830187612c61565b8460c083015261372860e0830185612c61565b6001600160a01b0392909216610120919091015295945050505050565b6000610160613755838651612c61565b60208501516137676040850182612c61565b50604085015161377a6080850182612c61565b50606085015160c0840152608085015161379760e0850182612c61565b5060a085015161012060018060a01b03821681860152826101408601526137c18386018751612c61565b602086015192506137d66101a0860184612c61565b604086015192506101e091506137ee82860184612bc0565b6060860151610260860152608086015161028086015260a08601516102a086015260c08601516102c086015260e08601516102e08601526101008601516103008601528501516103208501919091529050612ebc610340840182612c70565b600060408252835161012080604085015261386c610160850183612bee565b91506020860151603f198086850301606087015261388a8483612bee565b935060408801519150808685030160808701526138a78483612bee565b9350606088015191506138bd60a0870183612c61565b60808801519150808685030160e0870152506138d98382612bee565b92505060a086015161010085015260c08601516138f882860182612c61565b50508281036020840152612ebc8185612cbf565b90815260200190565b6040518181016001600160401b038111828210171561393357600080fd5b604052919050565b60006001600160401b03821115613950578081fd5b5060209081020190565b6001600160a01b038116811461212857600080fdfe5065726d697373696f6e2064656e6965643a204f6e6c792061646d696e206361a26469706673582212207bb13cb9dceec11443126795f43ace2c0d07a4fbb45d83853cbd0c23afd5c3e264736f6c634300060c0033",
  "immutableReferences": {},
  "source": "// SPDX-License-Identifier: MIT\r\npragma solidity ^0.6.0;\r\npragma experimental ABIEncoderV2;\r\n\r\nimport \"./Utils.sol\";\r\nimport \"./RubyBase.sol\";\r\n\r\ncontract RubyETH is RubyBase {\r\n\r\n    constructor(address _transfer, address _redeem, uint256 _unit) RubyBase(_transfer, _redeem, _unit) public {\r\n    }\r\n\r\n    function mint(Utils.G1Point memory y, uint256 unitAmount, bytes memory encGuess) public payable {\r\n        uint256 mUnitAmount = toUnitAmount(msg.value);\r\n        require(unitAmount == mUnitAmount, \"[Ruby mint] Specified mint amount is differnet from the paid amount.\");\r\n\r\n        mintBase(y, unitAmount, encGuess);\r\n    }\r\n\r\n    function redeem(Utils.G1Point memory y, uint256 unitAmount, Utils.G1Point memory u, bytes memory proof, bytes memory encGuess) public {\r\n        uint256 nativeAmount = toNativeAmount(unitAmount);\r\n        uint256 fee = nativeAmount * redeem_fee_numerator / redeem_fee_denominator; \r\n\r\n        redeemBase(y, unitAmount, u, proof, encGuess);\r\n\r\n        if (fee > 0) {\r\n            ruby_agency.transfer(fee);\r\n            redeem_fee_log = redeem_fee_log + fee;\r\n        }\r\n        msg.sender.transfer(nativeAmount-fee);\r\n    }\r\n}\r\n\r\n\r\n",
  "sourcePath": "RubyETH.sol",
  "compiler": {
    "name": "solc",
    "version": "0.6.12+commit.27d51765.Emscripten.clang"
  },
  "schemaVersion": "3.4.10",
  "updatedAt": "2022-12-15T13:28:25.917Z",
  "devdoc": {
    "kind": "dev",
    "methods": {},
    "version": 1
  },
  "userdoc": {
    "kind": "user",
    "methods": {
      "getBalance((bytes32,bytes32)[],uint256)": {
        "notice": "Get the current balances of accounts. If the given `round` is larger than the last roll over round, the returned balances will include pending transfers. "
      }
    },
    "version": 1
  }
}