{
  "contractName": "RubyRedeem",
  "abi": [
    {
      "inputs": [
        {
          "internalType": "address",
          "name": "_ip",
          "type": "address"
        }
      ],
      "stateMutability": "nonpayable",
      "type": "constructor"
    },
    {
      "inputs": [
        {
          "components": [
            {
              "components": [
                {
                  "internalType": "bytes32",
                  "name": "x",
                  "type": "bytes32"
                },
                {
                  "internalType": "bytes32",
                  "name": "y",
                  "type": "bytes32"
                }
              ],
              "internalType": "struct Utils.G1Point",
              "name": "ct_l",
              "type": "tuple"
            },
            {
              "components": [
                {
                  "internalType": "bytes32",
                  "name": "x",
                  "type": "bytes32"
                },
                {
                  "internalType": "bytes32",
                  "name": "y",
                  "type": "bytes32"
                }
              ],
              "internalType": "struct Utils.G1Point",
              "name": "ct_r",
              "type": "tuple"
            },
            {
              "components": [
                {
                  "internalType": "bytes32",
                  "name": "x",
                  "type": "bytes32"
                },
                {
                  "internalType": "bytes32",
                  "name": "y",
                  "type": "bytes32"
                }
              ],
              "internalType": "struct Utils.G1Point",
              "name": "pk",
              "type": "tuple"
            },
            {
              "internalType": "uint256",
              "name": "epoch",
              "type": "uint256"
            },
            {
              "components": [
                {
                  "internalType": "bytes32",
                  "name": "x",
                  "type": "bytes32"
                },
                {
                  "internalType": "bytes32",
                  "name": "y",
                  "type": "bytes32"
                }
              ],
              "internalType": "struct Utils.G1Point",
              "name": "u",
              "type": "tuple"
            },
            {
              "internalType": "address",
              "name": "sender",
              "type": "address"
            }
          ],
          "internalType": "struct RubyRedeem.Statement",
          "name": "statement",
          "type": "tuple"
        },
        {
          "components": [
            {
              "components": [
                {
                  "internalType": "bytes32",
                  "name": "x",
                  "type": "bytes32"
                },
                {
                  "internalType": "bytes32",
                  "name": "y",
                  "type": "bytes32"
                }
              ],
              "internalType": "struct Utils.G1Point",
              "name": "BA",
              "type": "tuple"
            },
            {
              "components": [
                {
                  "internalType": "bytes32",
                  "name": "x",
                  "type": "bytes32"
                },
                {
                  "internalType": "bytes32",
                  "name": "y",
                  "type": "bytes32"
                }
              ],
              "internalType": "struct Utils.G1Point",
              "name": "BS",
              "type": "tuple"
            },
            {
              "components": [
                {
                  "internalType": "bytes32",
                  "name": "x",
                  "type": "bytes32"
                },
                {
                  "internalType": "bytes32",
                  "name": "y",
                  "type": "bytes32"
                }
              ],
              "internalType": "struct Utils.G1Point[2]",
              "name": "tCommits",
              "type": "tuple[2]"
            },
            {
              "internalType": "uint256",
              "name": "tHat",
              "type": "uint256"
            },
            {
              "internalType": "uint256",
              "name": "mu",
              "type": "uint256"
            },
            {
              "internalType": "uint256",
              "name": "c",
              "type": "uint256"
            },
            {
              "internalType": "uint256",
              "name": "s_sk",
              "type": "uint256"
            },
            {
              "internalType": "uint256",
              "name": "s_b",
              "type": "uint256"
            },
            {
              "internalType": "uint256",
              "name": "s_tau",
              "type": "uint256"
            },
            {
              "components": [
                {
                  "components": [
                    {
                      "internalType": "bytes32",
                      "name": "x",
                      "type": "bytes32"
                    },
                    {
                      "internalType": "bytes32",
                      "name": "y",
                      "type": "bytes32"
                    }
                  ],
                  "internalType": "struct Utils.G1Point[]",
                  "name": "ls",
                  "type": "tuple[]"
                },
                {
                  "components": [
                    {
                      "internalType": "bytes32",
                      "name": "x",
                      "type": "bytes32"
                    },
                    {
                      "internalType": "bytes32",
                      "name": "y",
                      "type": "bytes32"
                    }
                  ],
                  "internalType": "struct Utils.G1Point[]",
                  "name": "rs",
                  "type": "tuple[]"
                },
                {
                  "internalType": "uint256",
                  "name": "a",
                  "type": "uint256"
                },
                {
                  "internalType": "uint256",
                  "name": "b",
                  "type": "uint256"
                }
              ],
              "internalType": "struct RubyIP.Proof",
              "name": "ip_proof",
              "type": "tuple"
            }
          ],
          "internalType": "struct RubyRedeem.Proof",
          "name": "proof",
          "type": "tuple"
        }
      ],
      "name": "verify",
      "outputs": [
        {
          "internalType": "bool",
          "name": "",
          "type": "bool"
        }
      ],
      "stateMutability": "view",
      "type": "function"
    },
    {
      "inputs": [
        {
          "components": [
            {
              "internalType": "bytes32",
              "name": "x",
              "type": "bytes32"
            },
            {
              "internalType": "bytes32",
              "name": "y",
              "type": "bytes32"
            }
          ],
          "internalType": "struct Utils.G1Point",
          "name": "ct_l",
          "type": "tuple"
        },
        {
          "components": [
            {
              "internalType": "bytes32",
              "name": "x",
              "type": "bytes32"
            },
            {
              "internalType": "bytes32",
              "name": "y",
              "type": "bytes32"
            }
          ],
          "internalType": "struct Utils.G1Point",
          "name": "ct_r",
          "type": "tuple"
        },
        {
          "components": [
            {
              "internalType": "bytes32",
              "name": "x",
              "type": "bytes32"
            },
            {
              "internalType": "bytes32",
              "name": "y",
              "type": "bytes32"
            }
          ],
          "internalType": "struct Utils.G1Point",
          "name": "pk",
          "type": "tuple"
        },
        {
          "internalType": "uint256",
          "name": "epoch",
          "type": "uint256"
        },
        {
          "components": [
            {
              "internalType": "bytes32",
              "name": "x",
              "type": "bytes32"
            },
            {
              "internalType": "bytes32",
              "name": "y",
              "type": "bytes32"
            }
          ],
          "internalType": "struct Utils.G1Point",
          "name": "u",
          "type": "tuple"
        },
        {
          "internalType": "address",
          "name": "sender",
          "type": "address"
        }
      ],
      "name": "wrapStatement",
      "outputs": [
        {
          "components": [
            {
              "components": [
                {
                  "internalType": "bytes32",
                  "name": "x",
                  "type": "bytes32"
                },
                {
                  "internalType": "bytes32",
                  "name": "y",
                  "type": "bytes32"
                }
              ],
              "internalType": "struct Utils.G1Point",
              "name": "ct_l",
              "type": "tuple"
            },
            {
              "components": [
                {
                  "internalType": "bytes32",
                  "name": "x",
                  "type": "bytes32"
                },
                {
                  "internalType": "bytes32",
                  "name": "y",
                  "type": "bytes32"
                }
              ],
              "internalType": "struct Utils.G1Point",
              "name": "ct_r",
              "type": "tuple"
            },
            {
              "components": [
                {
                  "internalType": "bytes32",
                  "name": "x",
                  "type": "bytes32"
                },
                {
                  "internalType": "bytes32",
                  "name": "y",
                  "type": "bytes32"
                }
              ],
              "internalType": "struct Utils.G1Point",
              "name": "pk",
              "type": "tuple"
            },
            {
              "internalType": "uint256",
              "name": "epoch",
              "type": "uint256"
            },
            {
              "components": [
                {
                  "internalType": "bytes32",
                  "name": "x",
                  "type": "bytes32"
                },
                {
                  "internalType": "bytes32",
                  "name": "y",
                  "type": "bytes32"
                }
              ],
              "internalType": "struct Utils.G1Point",
              "name": "u",
              "type": "tuple"
            },
            {
              "internalType": "address",
              "name": "sender",
              "type": "address"
            }
          ],
          "internalType": "struct RubyRedeem.Statement",
          "name": "statement",
          "type": "tuple"
        }
      ],
      "stateMutability": "pure",
      "type": "function"
    },
    {
      "inputs": [
        {
          "internalType": "bytes",
          "name": "arr",
          "type": "bytes"
        }
      ],
      "name": "unserialize",
      "outputs": [
        {
          "components": [
            {
              "components": [
                {
                  "internalType": "bytes32",
                  "name": "x",
                  "type": "bytes32"
                },
                {
                  "internalType": "bytes32",
                  "name": "y",
                  "type": "bytes32"
                }
              ],
              "internalType": "struct Utils.G1Point",
              "name": "BA",
              "type": "tuple"
            },
            {
              "components": [
                {
                  "internalType": "bytes32",
                  "name": "x",
                  "type": "bytes32"
                },
                {
                  "internalType": "bytes32",
                  "name": "y",
                  "type": "bytes32"
                }
              ],
              "internalType": "struct Utils.G1Point",
              "name": "BS",
              "type": "tuple"
            },
            {
              "components": [
                {
                  "internalType": "bytes32",
                  "name": "x",
                  "type": "bytes32"
                },
                {
                  "internalType": "bytes32",
                  "name": "y",
                  "type": "bytes32"
                }
              ],
              "internalType": "struct Utils.G1Point[2]",
              "name": "tCommits",
              "type": "tuple[2]"
            },
            {
              "internalType": "uint256",
              "name": "tHat",
              "type": "uint256"
            },
            {
              "internalType": "uint256",
              "name": "mu",
              "type": "uint256"
            },
            {
              "internalType": "uint256",
              "name": "c",
              "type": "uint256"
            },
            {
              "internalType": "uint256",
              "name": "s_sk",
              "type": "uint256"
            },
            {
              "internalType": "uint256",
              "name": "s_b",
              "type": "uint256"
            },
            {
              "internalType": "uint256",
              "name": "s_tau",
              "type": "uint256"
            },
            {
              "components": [
                {
                  "components": [
                    {
                      "internalType": "bytes32",
                      "name": "x",
                      "type": "bytes32"
                    },
                    {
                      "internalType": "bytes32",
                      "name": "y",
                      "type": "bytes32"
                    }
                  ],
                  "internalType": "struct Utils.G1Point[]",
                  "name": "ls",
                  "type": "tuple[]"
                },
                {
                  "components": [
                    {
                      "internalType": "bytes32",
                      "name": "x",
                      "type": "bytes32"
                    },
                    {
                      "internalType": "bytes32",
                      "name": "y",
                      "type": "bytes32"
                    }
                  ],
                  "internalType": "struct Utils.G1Point[]",
                  "name": "rs",
                  "type": "tuple[]"
                },
                {
                  "internalType": "uint256",
                  "name": "a",
                  "type": "uint256"
                },
                {
                  "internalType": "uint256",
                  "name": "b",
                  "type": "uint256"
                }
              ],
              "internalType": "struct RubyIP.Proof",
              "name": "ip_proof",
              "type": "tuple"
            }
          ],
          "internalType": "struct RubyRedeem.Proof",
          "name": "proof",
          "type": "tuple"
        }
      ],
      "stateMutability": "pure",
      "type": "function"
    }
  ],
  "bytecode": "0x608060405234801561001057600080fd5b50604051611c00380380611c0083398101604081905261002f91610054565b600080546001600160a01b0319166001600160a01b0392909216919091179055610082565b600060208284031215610065578081fd5b81516001600160a01b038116811461007b578182fd5b9392505050565b611b6f806100916000396000f3fe608060405234801561001057600080fd5b50600436106100415760003560e01c8063bba28e3c14610046578063d039751f1461006f578063f98f0cc91461008f575b600080fd5b610059610054366004611542565b6100af565b6040516100669190611994565b60405180910390f35b61008261007d3660046115b8565b6100f0565b6040516100669190611815565b6100a261009d366004611486565b61082f565b60405161006691906118f3565b6100b7610fd3565b868152602081018690526040810185905260608101849052608081018390526001600160a01b03821660a08201525b9695505050505050565b60008061014184600001518560200151866040015187606001518860a001516040516020016101239594939291906118a9565b6040516020818303038152906040528051906020012060001c610ab7565b905061014b611021565b835160208086015160405161016893610123938793919201611a51565b8152602081015160019081905261010082018190525b60208110156101f8576101ad8260000151836020015160018403602081106101a257fe5b602002015190610acb565b826020015182602081106101bd57fe5b6020020181815250506101ea826020015182602081106101d957fe5b602002015161010084015190610ae6565b61010083015260010161017e565b50805160405161020e9161012391602001611a06565b60408201819052610220906002610b01565b6060820181905260408201516102369190610acb565b608082018190526102849061025a9061025481640100000000610acb565b90610b57565b61025461027884606001518560400151610b5790919063ffffffff16565b61010085015190610acb565b6101008201819052606085015161029a91610b57565b60e082015260005b60208110156102db5760608201516102be90600283900a610acb565b8260a0015182602081106102ce57fe5b60200201526001016102a2565b506102fa81604001518560400151604051602001610123929190611a0f565b60c0820181905261034290610326906103139080610acb565b604087015160015b602002015190610b84565b60c0830151604087015161033c9190600061031b565b90610bbd565b610120820152610350611085565b61038461036e6103638760a00151610bfa565b604089015190610b84565b61033c8760c0015161037e610c0d565b90610b84565b81602001819052506103d56103c5836060015161037e6103b26103aa8a60a00151610bfa565b8b5190610b84565b60c08a015160208c015161033c91610b84565b61033c8760e0015161037e610c0d565b81604001819052506104356103f86103f08760e00151610bfa565b61037e610c0d565b61033c61040c88610100015161037e610c6c565b61033c8960a0015161037e610425896101200151610ccb565b61033c8a60e0015161037e610c0d565b8160600181905250610467604051806040016040528060048152602001635275627960e01b8152508760600151610d13565b81608001819052506104a061048d6104828760a00151610bfa565b608089015190610b84565b60c0870151608084015161033c91610b84565b60a0820181905260c0830151602080840151604080860151606087015191516104d3966101239695929392909101611a72565b80825260a086015160608801519114906104ec90610d78565b6040516020016104fc919061176f565b604051602081830303815290604052906105325760405162461bcd60e51b81526004016105299190611820565b60405180910390fd5b5061053b6110d3565b81516040516105509161012391602001611a06565b608082018190526105639061037e610c0d565b60208281019190915260408051828152610420810190915290816020015b610589611114565b815260200190600190039081610581575050604082015260005b60208110156106e05761064b6105cc856020015183602081106105c257fe5b6020020151610e50565b600054604051633844923b60e01b81526001600160a01b0390911690633844923b906105fc908690600401611a06565b604080518083038186803b15801561061357600080fd5b505afa158015610627573d6000803e3d6000fd5b505050506040513d601f19601f8201168201806040525081019061037e919061150f565b8260400151828151811061065b57fe5b60200260200101819052506106d36106c86106a28660a00151846020811061067f57fe5b602002015161069c8860400151896020015187602081106101a257fe5b90610ae6565b846040015184815181106106b257fe5b6020026020010151610b8490919063ffffffff16565b606084015190610bbd565b60608301526001016105a3565b5061072a816060015161033c6107046106fc8760400151610bfa565b61037e610e82565b61033c6107228860c001518c60200151610b8490919063ffffffff16565b8b5190610bbd565b815260808601516107529061074a9061074290610bfa565b61037e610c6c565b825190610bbd565b81526060860151602082015161076c9161074a9190610b84565b80825260005460408084015160208501516101208b015160808701519351634bfd395760e11b81526001600160a01b03909516956397fa72ae956107b695919291906004016117c3565b60206040518083038186803b1580156107ce57600080fd5b505afa1580156107e2573d6000803e3d6000fd5b505050506040513d601f19601f820116820180604052508101906108069190611466565b6108225760405162461bcd60e51b815260040161052990611853565b5060019695505050505050565b61083761112b565b604051806040016040528061084d846000610ee1565b815260200161085d846020610ee1565b90528152604080518082018252908190610878908590610ee1565b8152602001610888846060610ee1565b8152508160200181905250604051806040016040528060405180604001604052806108b4866080610ee1565b81526020016108c48660a0610ee1565b815250815260200160405180604001604052806108e28660c0610ee1565b81526020016108f28660e0610ee1565b90529052604082015261090782610100610ee1565b606082015261091882610120610ee1565b608082015261092982610140610ee1565b60a082015261093a82610160610ee1565b60c082015261094b82610180610ee1565b60e082015261095c826101a0610ee1565b61010082015261096a61118c565b60408051600580825260c0820190925290816020015b610988611114565b815260200190600190039081610980575050815260408051600580825260c0820190925290602082015b6109ba611114565b8152602001906001900390816109b2575050602082015260005b6005811015610a885760405180604001604052806109f986846040026101c001610ee1565b8152602001610a0f86846040026101e001610ee1565b90528251805183908110610a1f57fe5b60200260200101819052506040518060400160405280610a4986846005016040026101c001610ee1565b8152602001610a6286846005016040026101e001610ee1565b81525082602001518281518110610a7557fe5b60209081029190910101526001016109d4565b50610a9583610440610ee1565b6040820152610aa683610460610ee1565b60608201526101208201525b919050565b600080516020611b1a833981519152900690565b6000600080516020611b1a8339815191528284099392505050565b6000600080516020611b1a8339815191528284089392505050565b600080600080516020611b1a833981519152905060405160208152602080820152602060408201528460608201528360808201528160a082015260208160c08360055afa610b4e57600080fd5b51949350505050565b600081831015610b79578282600080516020611b1a8339815191520301610b7d565b8183035b9392505050565b610b8c611114565b604051835181526020840151602082015282604082015260408260608360075afa610bb657600080fd5b5092915050565b610bc5611114565b6040518351815260208401516020820152825160408201526020830151606082015260408260808360065afa610bb657600080fd5b600080516020611b1a8339815191520390565b610c15611114565b50604080518082019091527f077da99d806abd13c9f15ece5398525119d11e11e9836b2ee7d23f6159ad87d481527f01485efa927f2ad41bff567eec88f32fb0a0f706588b4e41a8d587d008b7f875602082015290565b610c74611114565b50604080518082019091527f01b7de3dcf359928dd19f643d54dc487478b68a5b2634f9f1903c9fb78331aef81527f2bda7d3ae6a557c716477c108be0d0f94abc6c4dc6b1bd93caccbcceaaa71d6b602082015290565b610cd3611114565b5060408051808201909152815181526020808301517f30644e72e131a029b85045b68181585d97816a916871ca8d3c208c16d87cfd470390820152919050565b610d1b611114565b610b7d7f30644e72e131a029b85045b68181585d97816a916871ca8d3c208c16d87cfd478484604051602001610d5292919061174d565b6040516020818303038152906040528051906020012060001c81610d7257fe5b06610ef1565b606081610d9d57506040805180820190915260018152600360fc1b6020820152610ab2565b8160005b8115610db557600101600a82049150610da1565b60608167ffffffffffffffff81118015610dce57600080fd5b506040519080825280601f01601f191660200182016040528015610df9576020820181803683370190505b50905060001982015b8515610e4757600a860660300160f81b82828060019003935081518110610e2557fe5b60200101906001600160f81b031916908160001a905350600a86049550610e02565b50949350505050565b6000610e7c827f30644e72e131a029b85045b68181585d2833e84879b9709143e1f593efffffff610b01565b92915050565b610e8a611114565b50604080518082019091527f2257118d30fe5064dda298b2fac15cf96fd51f0e7e3df342d0aed40b8d7bb15181527f0d4250e7509c99370e6b15ebfe4f1aa5e65a691133357901aa4b0641f96c80a8602082015290565b6040519101602001519081905290565b610ef9611114565b60005b6000610f09846003610f74565b6003019050610f38817f0c19139cb84c680a6e14116da060561765e05aa45a1c72a34f082305b61f3f52610f74565b915080610f46836002610f74565b1415610f525750610f5e565b60018401935050610efc565b6040805180820190915292835260208301525090565b6000807f30644e72e131a029b85045b68181585d97816a916871ca8d3c208c16d87cfd47905060405160208152602080820152602060408201528460608201528360808201528160a082015260208160c08360055afa610b4e57600080fd5b6040518060c00160405280610fe6611114565b8152602001610ff3611114565b8152602001611000611114565b815260200160008152602001611014611114565b8152600060209091015290565b6040518061014001604052806000815260200161103c6111b4565b815260200160008152602001600081526020016000815260200161105e6111b4565b8152602001600081526020016000815260200160008152602001611080611114565b905290565b6040518060c001604052806000815260200161109f611114565b81526020016110ac611114565b81526020016110b9611114565b81526020016110c6611114565b8152602001611080611114565b6040518060a001604052806110e6611114565b81526020016110f3611114565b815260200160608152602001611107611114565b8152602001600081525090565b604080518082019091526000808252602082015290565b60405180610140016040528061113f611114565b815260200161114c611114565b81526020016111596111d3565b81526020016000815260200160008152602001600081526020016000815260200160008152602001600081526020016110805b6040518060800160405280606081526020016060815260200160008152602001600081525090565b6040518061040001604052806020906020820280368337509192915050565b60405180604001604052806002905b6111ea611114565b8152602001906001900390816111e25790505090565b600082601f830112611210578081fd5b604061121b81611aae565b915081838560808601111561122f57600080fd5b60005b60028110156112595761124587836112eb565b835260209092019190830190600101611232565b5050505092915050565b600082601f830112611273578081fd5b813567ffffffffffffffff811115611289578182fd5b60206112988182840201611aae565b82815292508083018482016040808502870184018810156112b857600080fd5b60005b858110156112df576112cd89846112eb565b845292840192918101916001016112bb565b50505050505092915050565b6000604082840312156112fc578081fd5b6113066040611aae565b9050813581526020820135602082015292915050565b60006080828403121561132d578081fd5b6113376080611aae565b9050813567ffffffffffffffff8082111561135157600080fd5b61135d85838601611263565b8352602084013591508082111561137357600080fd5b5061138084828501611263565b602083015250604082013560408201526060820135606082015292915050565b60006101e082840312156113b2578081fd5b6101406113be81611aae565b91506113ca84846112eb565b82526113d984604085016112eb565b60208301526113eb8460808501611200565b60408301526101008381013560608401526101208085013560808501529184013560a084015261016084013560c084015261018084013560e08401526101a0840135818401526101c08401359167ffffffffffffffff83111561144d57600080fd5b6114598684870161131c565b8185015250505092915050565b600060208284031215611477578081fd5b81518015158114610b7d578182fd5b60006020808385031215611498578182fd5b823567ffffffffffffffff808211156114af578384fd5b818501915085601f8301126114c2578384fd5b8135818111156114d0578485fd5b6114e2601f8201601f19168501611aae565b915080825286848285010111156114f7578485fd5b80848401858401378101909201929092529392505050565b600060408284031215611520578081fd5b61152a6040611aae565b82518152602083015160208201528091505092915050565b600080600080600080610140878903121561155b578182fd5b61156588886112eb565b955061157488604089016112eb565b945061158388608089016112eb565b935060c087013592506115998860e089016112eb565b91506101208701356115aa81611b01565b809150509295509295509295565b6000808284036101608112156115cc578283fd5b610140808212156115db578384fd5b6115e560c0611aae565b91506115f186866112eb565b825261160086604087016112eb565b602083015261161286608087016112eb565b604083015260c0850135606083015261162e8660e087016112eb565b608083015261012085013561164281611b01565b60a083015290925083013567ffffffffffffffff811115611661578182fd5b61166d858286016113a0565b9150509250929050565b8060005b60028110156116a55761168f8483516116ef565b604093909301926020919091019060010161167b565b50505050565b6000815180845260208085019450808401835b838110156116e4576116d18783516116ef565b60409690960195908201906001016116be565b509495945050505050565b80518252602090810151910152565b600081516080845261171360808501826116ab565b90506020830151848203602086015261172c82826116ab565b91505060408301516040850152606083015160608501528091505092915050565b6000835161175f818460208801611ad5565b9190910191825250602001919050565b60007f5b527562792072656465656d5d205369676d61206368616c6c656e6765206661825265034b632b21d160d51b602083015282516117b6816026850160208701611ad5565b9190910160260192915050565b600060e082526117d660e08301886116ab565b6117e360208401886116ef565b6117f060608401876116ef565b82810360a084015261180281866116fe565b9150508260c08301529695505050505050565b901515815260200190565b600060208252825180602084015261183f816040850160208701611ad5565b601f01601f19169190910160400192915050565b60208082526036908201527f5b527562792072656465656d5d20496e6e65722070726f647563742070726f6f60408201527533103b32b934b334b1b0ba34b7b7103330b4b632b21760511b606082015260800190565b61010081016118b882886116ef565b6118c560408301876116ef565b6118d260808301866116ef565b60c08201939093526001600160a01b039190911660e0909101529392505050565b6000602082526119076020830184516116ef565b602083015161191960608401826116ef565b50604083015161192c60a0840182611677565b50606083015161012083810191909152608084015161014084015260a084015161016084015260c084015161018084015260e08401516101a08401526101008401516101c08401528301516101e08084015261198c6102008401826116fe565b949350505050565b6000610140820190506119a88284516116ef565b60208301516119ba60408401826116ef565b5060408301516119cd60808401826116ef565b50606083015160c083015260808301516119ea60e08401826116ef565b5060a092909201516001600160a01b0316610120919091015290565b90815260200190565b82815260a0810160208083018460005b6002811015611a4657611a338383516116ef565b6040929092019190830190600101611a1f565b505050509392505050565b83815260a08101611a6560208301856116ef565b61198c60608301846116ef565b8581526101208101611a8760208301876116ef565b611a9460608301866116ef565b611aa160a08301856116ef565b6100e660e08301846116ef565b60405181810167ffffffffffffffff81118282101715611acd57600080fd5b604052919050565b60005b83811015611af0578181015183820152602001611ad8565b838111156116a55750506000910152565b6001600160a01b0381168114611b1657600080fd5b5056fe30644e72e131a029b85045b68181585d2833e84879b9709143e1f593f0000001a2646970667358221220898cf419d146cd4bb6f380a71f3cd3ccc82a44081e29929688fe90f385b3e32f64736f6c634300060c0033",
  "immutableReferences": {},
  "source": "// SPDX-License-Identifier: MIT\r\npragma solidity ^0.6.0;\r\npragma experimental ABIEncoderV2;\r\n\r\nimport \"./Utils.sol\";\r\nimport \"./RubyIP.sol\";\r\n\r\ncontract RubyRedeem {\r\n    using Utils for uint256;\r\n    using Utils for Utils.G1Point;\r\n\r\n    RubyIP ip;\r\n\r\n    struct Statement {\r\n        Utils.G1Point ct_l;\r\n        Utils.G1Point ct_r;\r\n        Utils.G1Point pk;\r\n        uint256 epoch; \r\n        Utils.G1Point u;\r\n        address sender;\r\n    }\r\n\r\n    struct Proof {\r\n        Utils.G1Point BA;\r\n        Utils.G1Point BS;\r\n\r\n        Utils.G1Point[2] tCommits;\r\n        uint256 tHat;\r\n        uint256 mu;\r\n\r\n        uint256 c;\r\n        uint256 s_sk;\r\n        uint256 s_b;\r\n        uint256 s_tau;\r\n\r\n        RubyIP.Proof ip_proof;\r\n    }\r\n\r\n    constructor(address _ip) public {\r\n        ip = RubyIP(_ip);\r\n    }\r\n\r\n    struct RedeemInfo {\r\n        uint256 y;\r\n        uint256[32] ys;\r\n        uint256 z;\r\n        uint256 z2; \r\n        uint256 z3;\r\n        uint256[32] twoTimesZSquared;\r\n        uint256 x;\r\n        uint256 t;\r\n        uint256 k;\r\n        Utils.G1Point tEval;\r\n    }\r\n\r\n    struct SigmaInfo {\r\n        uint256 c;\r\n        Utils.G1Point A_y;\r\n        Utils.G1Point A_b;\r\n        Utils.G1Point A_t;\r\n        Utils.G1Point gEpoch;\r\n        Utils.G1Point A_u;\r\n    }\r\n\r\n    struct IPInfo {\r\n        Utils.G1Point P;\r\n        Utils.G1Point u_x;\r\n        Utils.G1Point[] hPrimes;\r\n        Utils.G1Point hPrimeSum;\r\n        uint256 o;\r\n    }\r\n\r\n    function gSum() internal pure returns (Utils.G1Point memory) {\r\n        return Utils.G1Point(0x2257118d30fe5064dda298b2fac15cf96fd51f0e7e3df342d0aed40b8d7bb151, 0x0d4250e7509c99370e6b15ebfe4f1aa5e65a691133357901aa4b0641f96c80a8);\r\n    }\r\n\r\n    function verify(Statement memory statement, Proof memory proof) public view returns (bool) {\r\n        uint256 statementHash = uint256(keccak256(abi.encode(statement.ct_l, statement.ct_r, statement.pk, statement.epoch, statement.sender))).gMod();\r\n\r\n        RedeemInfo memory redeem_info;\r\n        redeem_info.y = uint256(keccak256(abi.encode(statementHash, proof.BA, proof.BS))).gMod();\r\n        redeem_info.ys[0] = 1;\r\n        redeem_info.k = 1;\r\n        for (uint256 i = 1; i < 32; i++) {\r\n            redeem_info.ys[i] = redeem_info.ys[i - 1].gMul(redeem_info.y);\r\n            redeem_info.k = redeem_info.k.gAdd(redeem_info.ys[i]);\r\n        }\r\n        redeem_info.z = uint256(keccak256(abi.encode(redeem_info.y))).gMod();\r\n        redeem_info.z2 = redeem_info.z.gExp(2);\r\n        redeem_info.z3 = redeem_info.z2.gMul(redeem_info.z); \r\n        redeem_info.k = redeem_info.k.gMul(redeem_info.z.gSub(redeem_info.z2)).gSub(redeem_info.z3.gMul(2 ** 32).gSub(redeem_info.z3));\r\n        redeem_info.t = proof.tHat.gSub(redeem_info.k);\r\n        for (uint256 i = 0; i < 32; i++) {\r\n            redeem_info.twoTimesZSquared[i] = redeem_info.z2.gMul(2 ** i);\r\n        }\r\n\r\n        redeem_info.x = uint256(keccak256(abi.encode(redeem_info.z, proof.tCommits))).gMod();\r\n        redeem_info.tEval = proof.tCommits[0].pMul(redeem_info.x).pAdd(proof.tCommits[1].pMul(redeem_info.x.gMul(redeem_info.x))); \r\n        SigmaInfo memory sigma_info;\r\n        sigma_info.A_y = Utils.g().pMul(proof.s_sk).pAdd(statement.pk.pMul(proof.c.gNeg()));\r\n        sigma_info.A_b = Utils.g().pMul(proof.s_b).pAdd(statement.ct_r.pMul(proof.s_sk).pAdd(statement.ct_l.pMul(proof.c.gNeg())).pMul(redeem_info.z2));\r\n        sigma_info.A_t = Utils.g().pMul(redeem_info.t).pAdd(redeem_info.tEval.pNeg()).pMul(proof.c).pAdd(Utils.h().pMul(proof.s_tau)).pAdd(Utils.g().pMul(proof.s_b.gNeg()));\r\n        sigma_info.gEpoch = Utils.mapInto(\"Ruby\", statement.epoch);\r\n        sigma_info.A_u = sigma_info.gEpoch.pMul(proof.s_sk).pAdd(statement.u.pMul(proof.c.gNeg()));\r\n\r\n        sigma_info.c = uint256(keccak256(abi.encode(redeem_info.x, sigma_info.A_y, sigma_info.A_b, sigma_info.A_t, sigma_info.A_u))).gMod();\r\n        require(sigma_info.c == proof.c, string(abi.encodePacked(\"[Ruby redeem] Sigma challenge failed: \", Utils.uint2str(statement.epoch))));\r\n\r\n        IPInfo memory ip_info;\r\n        ip_info.o = uint256(keccak256(abi.encode(sigma_info.c))).gMod();\r\n        ip_info.u_x = Utils.g().pMul(ip_info.o);\r\n        ip_info.hPrimes = new Utils.G1Point[](32);\r\n        for (uint256 i = 0; i < 32; i++) {\r\n            ip_info.hPrimes[i] = ip.hs(i).pMul(redeem_info.ys[i].gInv());\r\n            ip_info.hPrimeSum = ip_info.hPrimeSum.pAdd(ip_info.hPrimes[i].pMul(redeem_info.ys[i].gMul(redeem_info.z).gAdd(redeem_info.twoTimesZSquared[i])));\r\n        }\r\n        ip_info.P = proof.BA.pAdd(proof.BS.pMul(redeem_info.x)).pAdd(gSum().pMul(redeem_info.z.gNeg())).pAdd(ip_info.hPrimeSum);\r\n        ip_info.P = ip_info.P.pAdd(Utils.h().pMul(proof.mu.gNeg()));\r\n        ip_info.P = ip_info.P.pAdd(ip_info.u_x.pMul(proof.tHat));\r\n        require(ip.verifyInnerProduct(ip_info.hPrimes, ip_info.u_x, ip_info.P, proof.ip_proof, ip_info.o), \"[Ruby redeem] Inner product proof verification failed.\");\r\n\r\n        return true;\r\n    }\r\n\r\n\r\n    function wrapStatement (Utils.G1Point memory ct_l, Utils.G1Point memory ct_r, Utils.G1Point memory pk, uint256 epoch, Utils.G1Point memory u, address sender) public pure returns (Statement memory statement) {\r\n        statement.ct_l = ct_l;\r\n        statement.ct_r = ct_r;\r\n        statement.pk = pk;\r\n        statement.epoch = epoch;\r\n        statement.u = u;\r\n        statement.sender = sender;\r\n        return statement;\r\n    }\r\n\r\n\r\n    function unserialize(bytes memory arr) public pure returns (Proof memory proof) {\r\n        proof.BA = Utils.G1Point(Utils.slice(arr, 0), Utils.slice(arr, 32));\r\n        proof.BS = Utils.G1Point(Utils.slice(arr, 64), Utils.slice(arr, 96));\r\n\r\n        proof.tCommits = [Utils.G1Point(Utils.slice(arr, 128), Utils.slice(arr, 160)), Utils.G1Point(Utils.slice(arr, 192), Utils.slice(arr, 224))];\r\n        proof.tHat = uint256(Utils.slice(arr, 256));\r\n        proof.mu = uint256(Utils.slice(arr, 288));\r\n\r\n        proof.c = uint256(Utils.slice(arr, 320));\r\n        proof.s_sk = uint256(Utils.slice(arr, 352));\r\n        proof.s_b = uint256(Utils.slice(arr, 384));\r\n        proof.s_tau = uint256(Utils.slice(arr, 416));\r\n\r\n        RubyIP.Proof memory ip_proof;\r\n        ip_proof.ls = new Utils.G1Point[](5);\r\n        ip_proof.rs = new Utils.G1Point[](5);\r\n        for (uint256 i = 0; i < 5; i++) { // 2^5 = 32.\r\n            ip_proof.ls[i] = Utils.G1Point(Utils.slice(arr, 448 + i * 64), Utils.slice(arr, 480 + i * 64));\r\n            ip_proof.rs[i] = Utils.G1Point(Utils.slice(arr, 448 + (5 + i) * 64), Utils.slice(arr, 480 + (5 + i) * 64));\r\n        }\r\n        ip_proof.a = uint256(Utils.slice(arr, 448 + 5 * 128));\r\n        ip_proof.b = uint256(Utils.slice(arr, 480 + 5 * 128));\r\n        proof.ip_proof = ip_proof;\r\n\r\n        return proof;\r\n    }\r\n}\r\n",
  "sourcePath": "RubyRedeem.sol",
  "compiler": {
    "name": "solc",
    "version": "0.6.12+commit.27d51765.Emscripten.clang"
  },
  "schemaVersion": "3.4.10",
  "updatedAt": "2022-12-15T13:28:25.954Z",
  "devdoc": {
    "kind": "dev",
    "methods": {},
    "version": 1
  },
  "userdoc": {
    "kind": "user",
    "methods": {},
    "version": 1
  }
}